:020000040800F2
:10000000002D002479030008E9B80008399400089D
:10001000599A0008750E000881F6000800000000DB
:100020000000000000000000000000003BC30008CA
:10003000A5190008000000002FBB00085DC90008DA
:100040009703000897030008970300089703000828
:100050009703000897030008970300089703000818
:100060009703000897030008970300085515000838
:10007000611500089703000897030008970300081C
:1000800097030008970300089D09000897030008DC
:1000900097030008970300089703000897030008D8
:1000A00097030008970300089703000897030008C8
:1000B00097030008970300089703000897030008B8
:1000C00097030008970300089703000897030008A8
:1000D0009703000891D700089703000897030008CA
:1000E000970300089703000800000000970300082A
:1000F00011CB000897030008970300089703000836
:100100009703000897030008970300089703000867
:10011000970300089703000805CB00089703000821
:100120009703000897030008970300089703000847
:100130009703000897030008970300089703000837
:1001400000000000000000000000000000000000AF
:100150009703000897030008970300089703000817
:100160009703000897030008970300089703000807
:100170009703000897030008970300080000000099
:1001800097030008970300089703000897030008E7
:10019000F1C00008970300089703000897030008C0
:1001A00097030008970300089703000897030008C7
:1001B00097030008970300089703000897030008B7
:1001C00097030008970300089703000897030008A7
:1001D00097030008F1B80008970300089703000888
:1001E0009703000897030008970300089703000887
:1001F0009703000897030008970300089703000877
:100200009703000897030008970300089703000866
:100210009703000897030008970300089703000856
:1002200097030008970300089703000800000000E8
:1002300097030008970300080000000097030008D8
:100240009703000897030008970300089703000826
:100250009703000897030008970300089703000816
:100260009703000897030008970300089703000806
:100270009703000897030008970300080000000098
:100280009703000897030008970300080000000088
:10029000000000009703000800F002F800F05CF88E
:1002A0000AA090E8000C82448344AAF10107DA45D1
:1002B00001D100F051F8AFF2090EBAE80F0013F0C7
:1002C000010F18BFFB1A43F001031847CCFE0000D2
:1002D000ECFE00000A444FF0000C10F8013B13F054
:1002E000070408BF10F8014B1D1108BF10F8015B8F
:1002F000641E05D010F8016B641E01F8016BF9D182
:1003000013F0080F1EBF10F8014BAD1C0C1B09D1D8
:100310006D1E58BF01F801CBFAD505E014F8016B4A
:1003200001F8016B6D1EF9D59142D6D370470000DC
:100330000023002400250026103A28BF78C1FBD8EE
:10034000520728BF30C148BF0B6070471FB50FF080
:100350005AFE1FBD10B510BD00F068F91146FFF739
:10036000F5FF0FF00FFD00F086F903B4FFF7F2FF81
:1003700003BC00F089F900000A4880470A4880471A
:100380000A480047FEE7FEE7FEE7FEE7FEE7FEE776
:10039000FEE7FEE7FEE7FEE705480649064A074B8B
:1003A00070470000E52100080DCA00089902000806
:1003B00000270024002D0024002900240029002407
:1003C00053EA020C00F069802DE9F04B4FF0000673
:1003D000002B1FBFB3FA83F503FA05F424FA05F6E0
:1003E0005E4012BF1643B2FA82F502FA05F4C5F177
:1003F00020051EBF22FA05FC44EA0C04203556EA0B
:10040000044C4FEA144418BF641C4FF000084FF02E
:100410000009904271EB030C39D3002919BFB1FADE
:1004200081F701FA07F6B0FA80F700FA07F6C7F18C
:1004300020071EBF20FA07FC46EA0C062037B6FB51
:10044000F4FCA7EB0507103F07F01F0BCBF12006CC
:100450000CFA0BFB2CFA06F644BFB3460026202FFD
:10046000A4BF5E464FF0000B5BEA060C08BF4FF0DE
:10047000010B19EB0B09ABFB027C48EB0608C01B18
:1004800006FB02CC0BFB03CC71EB0C01C1E70B4666
:10049000024641464846BDE8F08B13B54FF00000D8
:1004A0004FF00001AFF30080BDE81C40704710B56D
:1004B0004C1084EA530404D54042C1F1000138BF16
:1004C000491E1B4204D55242C3F1000338BF5B1ED4
:1004D000FFF776FF14F0804F04D04042C1F10001D5
:1004E00038BF491E14F0004F04D05242C3F100033C
:1004F00038BF5B1E10BD40EA010310B59B070FD14A
:10050000042A0DD310C808C9121F9C42F8D020BA83
:1005100019BA884201D9012010BD4FF0FF3010BD3B
:100520001AB1D30703D0521C07E0002010BD10F809
:10053000013B11F8014B1B1B07D110F8013B11F8CF
:10054000014B1B1B01D1921EF1D1184610BD10B5F5
:10055000203AC0F00B80B1E81850203AA0E81850BB
:10056000B1E81850A0E81850BFF4F5AF5FEA027C7C
:1005700024BFB1E81850A0E8185044BF18C918C0EB
:10058000BDE810405FEA827C24BF51F8043B40F88C
:10059000043B08BF7047D20728BF31F8023B48BF71
:1005A00011F8012B28BF20F8023B48BF00F8012BAF
:1005B00070474FF0000200B5134694469646203926
:1005C00022BFA0E80C50A0E80C50B1F12001BFF40C
:1005D000F7AF090728BFA0E80C5048BF0CC05DF872
:1005E00004EB890028BF40F8042B08BF704748BFC0
:1005F00020F8022B11F0804F18BF00F8012B704734
:1006000070477047704710B500F008F8006810BDDB
:1006100010B5044600F002F8046010BD00487047B1
:10062000A026002400487047A02600247546FFF746
:10063000F9FFAE4605006946534620F0070085469F
:1006400018B020B5FFF7A8FEBDE820404FF0000627
:100650004FF000074FF000084FF0000B21F00701AA
:10066000AC46ACE8C009ACE8C009ACE8C009ACE8ED
:10067000C0098D46704710B50446AFF30080204690
:10068000BDE81040FFF771BE01491820ABBEFEE780
:10069000260002007047000070B53A490546006820
:1006A000884202D0384A904202D1D1F8080302E0D1
:1006B0003648D0F8080310F4403F11D006F09CFCF7
:1006C00004466868B0F5803F06D0B0F5003F03D01F
:1006D000B0F5403F27D101E0000C18E0A40822E06B
:1006E00000214FF4002005F01FFD044668688103D7
:1006F000890B18D181140C2915D2DFE801F01406FA
:1007000006060606060B0D0F1113800C4000B4FB05
:10071000F0F408E0240906E0640904E0A40902E01A
:10072000E40900E0240A04F079FC41F20301884264
:1007300008D8174884422868816813D821F480714A
:10074000816070BD13496008884204D828688168B8
:1007500021F44071F4E71049884206D8286881687E
:1007600021F4407141F48071EAE70C49884228681D
:10077000816804D821F4407141F40071E0E741F44C
:100780004071DDE700200240002102400060025875
:10079000002D3101105E5F0020BCBE0040787D015D
:1007A0002DE9F0410027044600680D4608F075FE6B
:1007B0000646206808F069FE30435DD020682F4E61
:1007C000C168890105D5617D012902D1217D0129F9
:1007D0000BD0022D1DD0206808F05FFEB8B1206854
:1007E0008168C1F3400169B111E02549012502E0AA
:1007F0008F4232D27F1C0268D2435206F8D4402185
:100800000160E8E78168314041F010018160012D0D
:1008100011D0206808F039FE48B120688168C1F322
:10082000400121B98168314041F020018160022DF1
:1008300008D0032D04D0042504F0F6FB064617E08B
:100840000C25F9E70825F7E704F0EEFB801B0528E7
:100850000ED92068806828420AD0606D40F01000F0
:100860006065A06D40F00100A0650120BDE8F08149
:10087000206880682842E7D10020F7E7C0FFFF7FAB
:1008800000DC0C0070B50446006881688268C1F322
:10089000400112F0010F28D039BB816801F00D0131
:1008A000012914D18168124A1140891C8160216894
:1008B0000320086004F0B8FB054612E004F0B4FB26
:1008C000401B02280DD920688068C00709D0606DE0
:1008D00040F010006065A06D40F00100A0650120AF
:1008E00070BD20688068C007E8D1002070BD00009E
:1008F000C0FFFF7F70B504460068816811F0010FEA
:1009000040D18168204A11422DD18168D5432940C8
:10091000491C816004F088FB1C49064620681C4B7A
:10092000884201D0984201D11A4A00E01A4A9268DE
:10093000984202F01F0200D0014681421DD0E2B170
:1009400020E0816811F0010F03D181682940491C22
:10095000816004F069FB801B02280ED920680068C2
:10096000C043C00709D0606D40F010006065A06D05
:1009700040F00100A065012070BD20680168C943F6
:10098000C907DED1002070BD3F000080002002407A
:10099000002102400023024000630258014802F097
:1009A0008FBC00008C060024002804D00621425C85
:1009B000A52A01D000207047491C2029F7D3012027
:1009C000704700280AD000228154521C062AFBD30B
:1009D000A521202A02D28154521CFAE77047000058
:1009E00070B51A4C606818B1A06800F04BF8A060B0
:1009F000174D2878002827D0E868411C01D0401CFA
:100A000001E04FF0FF30E860E86802281CD9687800
:100A1000002819D101206870E06900F033F8002641
:100A2000E061AE6084F83260686806F093FE0028EA
:100A30000AD02E7084F83360A06900F023F8A0611A
:100A40006868D0F88400606270BD00004002002435
:100A50000000002410B558B10849496841B1EFF3CE
:100A6000108472B634220649FFF771FD14B102E01A
:100A7000002010BD62B6012010BD0000000000245F
:100A800040020024411C01D0401C70474FF0FF3051
:100A90007047000070B518B1144A0168914201D046
:100AA000012070BDEFF3108472B6114D0021686013
:100AB0001048FFF786FF0F48FF212030FFF781FF26
:100AC0000C4834214030FFF774FD0A490020421ED3
:100AD000403102238A6081F83030A860E8602870D5
:100AE000687004B962B6002070BD00000034014097
:100AF0000000002400020024044900200870C8609F
:100B00004870034981F8330070470000000000245A
:100B10004002002470B5454E0025454C86B0357026
:100B2000F560757084F83350A4F14000FFF73CFF86
:100B3000A8B3A4F12000FFF737FF80B3A4F1200091
:100B4000694600F021F900280099A4F1400081666F
:100B5000BDF80410A0F86C103BD0029820609DF8FE
:100B60000C0084F82E009DF80D0084F82F0084F806
:100B700030509DF81000E8B35FF0000084F83100B9
:100B80006068411C44D0401C6060E068FFF77AFF59
:100B9000E060A560B068411C3CD0401C3CE0FFE731
:100BA000206A1434FFF76EFFE0602068FFF76AFFE9
:100BB000022120602177B560A57700211C484038CC
:100BC000FFF7FFFE1A48FF212038FFF7FAFE06B0B4
:100BD00070BD9DF80C0084F82E009DF80D0084F87F
:100BE0002F009DF8110084F83000B56084F8325071
:100BF000042800E00AE004D06069FFF743FF606169
:100C0000E5E72069FFF73EFF2061E0E70120B5E757
:100C10000120B9E74FF0FF30B060B068202801D361
:100C2000012000E0002084F83200D0E7000000241A
:100C3000400200242DE9F041094E0024094D0746E9
:100C40003470F460747085F8334055F8180FFFF76E
:100C500019FF2860EF60B460AC76BDE8F081000059
:100C600000000024400200242DE9F041244C60687B
:100C700020B1207820B10220BDE8F0810120FBE7FF
:100C80002048FFF791FE1F4D4FF0000605F140058B
:100C900028B3A5F12000FFF787FE00B301202070E4
:100CA000E660667085F8330006231649A5F1200238
:100CB000606807F075FA07000FD0022F267085F8DC
:100CC00033600AD0A869FFF7DDFEA8616068D0F83C
:100CD00084006862A66085F832603846CCE7286AEE
:100CE000FFF7D0FE286285F8326000210548FFF743
:100CF00068FE0448FF212030FFF763FEBEE70000D6
:100D0000000000240002002470B504464FF00002E9
:100D100009B1202901D9002070BD3F2000230FE038
:100D2000CE1A5509761E00EA420224FA06F606F0AB
:100D3000010695EA060F01D082F003025B1CDBB2CC
:100D40008B42EDD3904370BD01F00702C908C2F198
:100D50000702405CD04000F0010070472DE9F041EF
:100D6000002516460F4680462C4608E03819C1B2C9
:100D70004046FFF7E9FF641C40EA4505E4B2B4428F
:100D8000F4D32846BDE8F0812DE9F0470C00064673
:100D90000CD014212046FFF70CFC012060742EB10A
:100DA000306800252060B088A08009E00020BDE800
:100DB000F0872DB1681EC1B23046FFF7C5FF10B3F2
:100DC0000027E819C1B23046FFF7BEFFD8B97F1C33
:100DD000FFB20D2FF5D305F10D00C1B23046FFF77C
:100DE000B3FF80B10F353046EDB211222946FFF72F
:100DF000B5FF814605F11100C1B23046FFF7A4FFEF
:100E000040B1012707E06D1CEDB2082DD1D90220B9
:100E10006074CBE7002705F11200C1B23046FFF73E
:100E200093FF00B10120804605F11300C1B23046A6
:100E30000622FFF793FFC6B20FB1022100E00021A6
:100E400041EA8900132140EA0800FFF75DFFA5731E
:100E50002673607384F81080E7731FB1864203D055
:100E60000420D5E70320D3E70021C4F8089001202F
:100E700061749CE7042001F08BF9FEE704284FF031
:100E80000000704710B50AF0D7FC002010BD00002C
:100E900010B50549002205480CF092FE04490348AC
:100EA0000CF080FE002010BD9C170024C00A002416
:100EB0009C0F002410B5014603480CF073FE024855
:100EC0000CF040FE002010BDC00A002410B50AF04E
:100ED000ADFC002010BD00000A4610B50B4991F88A
:100EE0009C32032B07D1D1F8BC1221B1D1F81412D6
:100EF00019B1012010BD012010BD014603480CF0BE
:100F00005FFEBDE8104001480CF0F2BEC00A0024AC
:100F100070B54FF0FF3210B10C4E002411E091B1CA
:100F2000002070BD035D5A405FF0000302F0010530
:100F30006D4235405B1CDBB2082B85EA5202F5D3CB
:100F4000641C8C42EED3D04370BD00002083B8ED0A
:100F5000B4EEE00AF1EE10FA06DCF1EE600AB4EE4F
:100F6000E00AF1EE10FA01D2B0EE600A704770B5F7
:100F700004000D460CD0084600F00CF840B195E88E
:100F80000F0084E80F00204600F08AF8012070BDB1
:100F9000002070BD10B504002DD020680EF095FB28
:100FA00048B360680EF091FB28B3A0680EF08DFB8B
:100FB00008B3E0680EF089FBE8B194ED000AB5EEE5
:100FC000C00AF1EE10FA16DB94ED010AB5EEC00A84
:100FD000F1EE10FA0FDB94ED020AB5EEC00AF1EE65
:100FE00010FA08DB94ED030AB5EEC00AF1EE10FA30
:100FF00001DD012010BD002010BD2DE9F0410400ED
:101000001D4616460F462DED028B46D0EFB3E6B3D4
:10101000DDB3FFF7BFFFC0B338680EF056FBA0B3D7
:1010200078680EF052FB80B330680EF04EFB60B370
:1010300070680EF04AFB40B328680EF046FB20B300
:1010400068680EF042FB00B396EC021AD7ED000A76
:1010500097ED010A70EEC10A30EE618A95ED000A43
:1010600094ED001A01EE600AD4ED030AFFF770FF59
:1010700084ED040A95ED010AD4ED000A00EEC80AD9
:10108000D4ED030AFFF764FF00E006E0012084EDE1
:10109000050ABDEC028BBDE8F0810020F9E70000F5
:1010A000002805D09FED030A80ED040A80ED050AB3
:1010B00070470000000000002DE9F04104001D46CB
:1010C00016460F462DED028BB0EE408AF7EE008AF1
:1010D0007DD0002F7BD0002E79D0002D77D0FFF768
:1010E00059FF002873D018EE100A0EF0EEFA00280F
:1010F0006DD0B5EEC08AF1EE10FA68D938680EF0FE
:10110000E4FA002863D078680EF0DFFA00285ED099
:1011100030680EF0DAFA002859D070680EF0D5FA6F
:10112000002854D020690EF0D0FA00284FD0606912
:101130000EF0CBFA00284AD097ED000AD6ED000A4F
:1011400030EE600A85ED000AD7ED010A96ED011A2E
:1011500070EEC10AC5ED010A94ED001A21EE000AF5
:1011600085ED020A94ED001A61EE200AC5ED030A2E
:1011700094ED041A30EE010A85ED060A94ED051A85
:1011800020EE000A70EE810AC5ED070A00EEA00A03
:101190000EF01EFDD4ED030AF4EEC00AF1EE10FAD3
:1011A00001D2012000E0002085F8280040B110EEB7
:1011B000100A2E49884203DDD4ED030AC0EE808A6E
:1011C000D5ED060A20EEA80A85ED080A00E04AE0FF
:1011D00070EE601AD5ED070A20EEA80A85ED090A1F
:1011E00030EE602AD5ED000A94ED010A94ED021A62
:1011F000D5ED012A60EE200A60EE228A94ED040A01
:1012000041EE210A41EE028A00EE880AD4ED030A7B
:10121000FFF79EFE84ED040A94ED050AD4ED030A5F
:1012200008EE880AFFF794FE84ED050A94ED040A9F
:1012300085ED040A94ED050A85ED050A286A0EF08D
:1012400044FA80B1686A0EF040FA60B120690EF08D
:101250003CFA40B160690EF038FA20B10120BDECD3
:10126000028BBDE8F0810020F9E70000CCBC8C2B9C
:10127000F0B590B3D0F804C0BCF1000F2ED00368D5
:1012800013B15B1E036029E0D0F808E0E64522D2E6
:10129000D0E90464002376185C41D0E90675C0E902
:1012A0000464BC185D41C0E90645036A8B4200D95D
:1012B0000162436A8B4200D24162816A914200D945
:1012C0008262C16A914200D2C2620EF1010EE6450D
:1012D000C0F808E002D30120F0BDFFE70020FBE7E3
:1012E0002DE9F041040016460F462DED048BB0EEBB
:1012F000608AF0EE408A53D0EEB318EE900A0EF0FA
:10130000D6F9C0B318EE100A0EF0D1F998B3F5EE85
:10131000C08AF1EE10FA43D9B5EEC08AF1EE10FAA8
:101320003ED365683DB3A068A84239D1D4E908101E
:10133000401AB84234D8D4E90A10401AB8422FD81B
:10134000D4E904010EF0E9FD00EE105A00EE900A17
:10135000D4E90601B8EE400A80EE809A0EF0DDFD79
:1013600000EE105A00EE900AB4EEC89AB8EE401A99
:1013700080EE810A00E013E0F1EE10FA10D3B4EE33
:10138000C80AF1EE10FA0BD378EEC80AF4EEC90AD7
:10139000F1EE10FA04D3F4EEC00AF1EE10FA04D222
:1013A0000020BDEC048BBDE8F08186ED009A0120A1
:1013B00086ED010AF5E7F0B500280ED000252B4692
:1013C0002E4680E80E006C1E2F46C0E90845C0E995
:1013D0000A451030AC4680E8E010F0BD2DE9F04140
:1013E0001E46174688460446069DEDB300F05CF89D
:1013F000D0B300EE907A94ED010AF8EE600AB4EEF4
:10140000E00AF1EE10FA4CD300EE906AF8EE600AB2
:10141000B4EEE00AF1EE10FA43D3D4ED033A00EE55
:10142000907AD4ED022A20EE230AF8EE600A98EDB5
:10143000003A94ED002A20EE220A70EEC32AD4ED81
:10144000041A01EE106AC2EE000A21EEA20AB8EEFA
:10145000411A20EE200A85ED000A98ED012AD4ED0C
:10146000051A31EE421A00E01BE021EE811A10EE5F
:10147000100A61EE200AC5ED010A30EE201AF1EEE5
:10148000410AC5ED020A0EF012F950B168680EF07B
:101490000EF930B1A8680EF00AF910B10120BDE8CC
:1014A000F0810020FBE7000070B504000D464DD030
:1014B000F5B320680EF0FBF8D0B360680EF0F7F8D3
:1014C000B0B3A0680EF0F3F890B3E0680EF0EFF858
:1014D00070B320690EF0EBF850B360690EF0E7F8D6
:1014E00030B328680EF0E3F810B368680EF0DFF848
:1014F000F0B194ED000AB5EEC00AF1EE10FA25DD68
:1015000094ED010AB5EEC00AF1EE10FA1EDD94ED7D
:10151000020AB5EEC00AF1EE10FA17DD94ED030AE7
:10152000B5EEC00AF1EE10FA10DD4FF07E5100E08A
:101530000CE02069064A884201D0904206D16069D9
:10154000884201D0904201D1012070BD002070BDC1
:10155000000080BF014802F06BBC00008808002436
:10156000014802F065BC000000090024294A016816
:1015700091423AD0274A1832914236D0254A303229
:10158000914232D0234A483291422ED0214A6032D1
:1015900091422AD01F4A7832914226D01D4A903279
:1015A000914222D01B4AA83291421ED01A4A91423F
:1015B0001BD0194A1832914217D0174A3032914243
:1015C00013D0154A483291420FD0134A60329142EB
:1015D0000BD0114A7832914207D00F4A9032914293
:1015E00003D00D4AA832914211D1CAB21823103A41
:1015F000B2FBF3F26FF30901032A02F00703074A73
:10160000D25CC26500D9091D81650846704721F08A
:10161000FF01F9E710000240100402403801010800
:1016200030B5224A012301689142CAB21BD01F4C37
:101630001434A14217D01D4C2834A14213D01B4CA6
:101640003C34A1420FD0194C5034A1420BD0174C5E
:101650006434A14207D0154C7834A14203D0134C16
:101660008C34A1420CD11421114C083AB2FBF1F197
:101670000F4A803201F01F0504EB8101AB4010E0FE
:101680000C4D1824103A0D44B2FBF4F1A82D00D8EB
:101690000831094A01F01F0402EB8101064AA34008
:1016A0008032603080E80E0030BD000008540258DF
:1016B00000580258F0FBFDBF0008024010B5027947
:1016C000531E072B2DD8174C0168A1421BD0154C77
:1016D0001434A14217D0134C2834A14213D0114C1A
:1016E0003C34A1420FD00F4C5034A1420BD00D4CD2
:1016F0006434A14207D00B4C7834A14203D0094C8A
:101700008C34A14203D10849074C443102E0074917
:10171000064C443104EB8202C0E91B2101219940AF
:10172000416710BD08540258FC580258FC0802409A
:1017300010B583694FF0C074826A0146002053B12E
:10174000B3F5005F15D072B1012A0CD0022A0AD07D
:10175000032A09D104E01AB1012A06D0022A03D1D2
:10176000C96AC90100D5012010BDC96AA142FAD0D9
:1017700010BD002AF7D0012AF2D0022AF3D0032AA2
:10178000F3D010BD2DE9F04F804E804FDFF8FC9173
:101790001836DFF8F8A148370468856D0AF1300A79
:1017A000DFF8ECB14C45DFF8ECC1DFF8ECE16DD0CF
:1017B000B4426BD0544569D0BC4267D0DFF8D081C9
:1017C000A8F11808444561D05C455FD064455DD000
:1017D00074455BD0DFF8C481444557D0DFF8BC8145
:1017E00008F11808444551D0DFF8B08108F13008FD
:1017F00044454BD0DFF8A48108F14808444545D062
:10180000DFF8988108F1600844453FD0DFF88C810B
:1018100008F17808444539D0DFF8808108F1900854
:10182000444533D0DFF8748108F1A80844452DD031
:10183000DFF86C81444529D0DFF8648108F1140891
:10184000444523D0DFF8588108F1280844451DD0CD
:10185000DFF84C8108F13C08444517D0DFF840819F
:1018600008F15008444511D0DFF8348108F16408CC
:1018700044450BD0DFF8288108F17808444505D0AD
:10188000DFF81C8108F18C08444509D1D0E91948DA
:10189000C4F80480C46E1CB1D0E91C48C4F80480AC
:1018A00004684C452ED0B4422CD054452AD0BC42BA
:1018B00028D0374E183EB44224D05C4522D064452F
:1018C00020D074451ED0354EB4421BD0334E18364E
:1018D000B44217D0314E3036B44213D02F4E483672
:1018E000B4420FD02D4E6036B4420BD02B4E78361A
:1018F000B44207D0294E9036B44203D0274EA836C2
:10190000B44215D190F85C603F2406F01F06B44045
:10191000AC600468256825F4802525602EE09A6077
:101920000068C160BDE8F08F99600068C260F9E7A7
:101930001B4EB4421BD01A4E1436B44217D0184E68
:101940002836B44213D0164E3C36B4420FD0144E53
:101950005036B4420BD0124E6436B44207D0104E0B
:101960007836B44203D00E4E8C36B442DAD190F8B9
:101970005C60012406F01F06B4406C60046863607C
:101980008368402B0368CFD1C9E7000010000240F4
:1019900088000240A0000240B8000240100402404B
:1019A0000854025870470000014800F041B8000098
:1019B00078060024014800F046B8000078060024AC
:1019C0001CB5084C00222021204603F021FB1020EA
:1019D000054902232246CDE90040044800F010F8F2
:1019E00000201CBD00080258F006002478060024E0
:1019F00020210246014803F00BBB000000080258FA
:101A000070B500281646DDE9045410D0C0E9001670
:101A100003810122C56019460482304603F0F8FABA
:101A200021462846BDE87040002203F0F1BA70BD9F
:101A3000002807D0C368002B04D0018A0022184672
:101A400003F0E6BA704770B5040013D0E06888B1BF
:101A5000218A012203F0DCFA052003F08DF801222F
:101A60002046022100F03AF8050005D02046FFF795
:101A7000DFFF11E0012070BD062140F20322204665
:101A800000F02CF80500F1D1052140F21F3220466C
:101A900000F024F80500E9D1284670BD37B50400F0
:101AA000154682B018D02068B0B1ADB121890022AE
:101AB000606803F0ADFA0A2000902068012303A9B2
:101AC0002A4606F0D1F9218901220546606803F013
:101AD0009FFA284605B030BD0120FBE70F2908B565
:101AE00002D8B2F5006F01D3012008BD42EAC1213E
:101AF0006A4689B2FFF7D2FF08BD1CB504000FD0BB
:101B00008DF80420684600918DF8053000F00AF841
:101B1000002804D0DDE90001C4E9000101201CBD5A
:101B200000201CBD68B10168B1F5003F09D290F9F1
:101B30000410012901D0491C03D1407908B10120CA
:101B4000704700207047000070B514460D460646E9
:101B5000FFF7E8FF4042204202D0B5F5003F01D335
:101B6000002070BD316896F90400691A2560DFED28
:101B70000D0A484300EE100AB8EEC00A20EE200A13
:101B800000F012F884ED010A707900EE900AF8EE88
:101B9000600A20EE200A00F007F8012084ED020A16
:101BA00070BD00000000003710B52DED028BB0EEC7
:101BB000408A18EE100ADFED118A6FEAD05010F05B
:101BC000FF0F18D0B0EE480A0DF05CFE38EE400A68
:101BD00010EE100AB0F17E5F01DBB0EE680AB5EEE0
:101BE000C00AF1EE10FA03D2F7EE000A30EE200A36
:101BF000BDEC028B10BDB0EE680AF9E700000000F2
:101C00007FB50446C06815460A4600B922611046F1
:101C1000216900F073F8D4E90616226A091846EB28
:101C2000E0768242C4E9061600DD2062626A8242E2
:101C300000DA6062E068401CE060802802D2002088
:101C400004B070BDD4E90820801A802805DD042284
:101C50002146684600F060F8F1E78022084600233C
:101C60003146FEF724FC2269801841F1000104E0AE
:101C70004FF40032801841F100010029F8DB03E045
:101C8000064A801841F1FF314FF40032821A71F197
:101C90000002F5DA28600120D2E700000000FEFF14
:101CA000B5EEC00AF1EE10FA9FED0B1A02D2B0EEBB
:101CB000410A06E010EE102A084B9A4201DD9FED22
:101CC000080A012280ED000AC0ED020A80ED011A27
:101CD00062F30701C160704700000000CDCC4C3FAB
:101CE000CDCC4C3F30B56FF000440022C260E50718
:101CF00002611830134680E83C0030BD401AB0F550
:101D0000803F02DDA0F50030704710F5803FFBDA20
:101D100000F50030704700004A7000239FED040A70
:101D200081F84C3007220A7081ED010A00F028BAD0
:101D30000000000060B159B10278062A08D190F87D
:101D40004C202AB1D0E91120C1E9002001207047C0
:101D50000020704710B5040004D05021FEF729FC84
:101D60000020207010BD000010B5040008D0FFF75F
:101D7000F1FF9FED040A012084ED010A207010BDDF
:101D8000002010BD000000002DE9F04715460C466C
:101D900080462DED048B8AB0B0EE408A684600F094
:101DA000EFF9002C7ED0002DFCD018EE100A002692
:101DB0006FEAD05010F0FF0F06D0B5EEC08A4FF09A
:101DC000010AF1EE10FA01D8012226E0217800295B
:101DD000E8D00629E6D00729E4D094ED010A70EE98
:101DE000080A10EE900AC4ED010AB0F1804F01DD3F
:101DF000062212E0287878B168784FF4003310B1E9
:101E00006868984212D3A068421C03D0401CA060AE
:101E100064280CD9032200E0022221464046FFF745
:101E20007BFF0AB0BDEC048BBDE8F087A660DFED58
:101E3000CF1ACF4F4FF07E524FF07C59DFEDCD8A55
:101E40009FEDCD8A9FEDCD0A0D29B7EE001ABBD2CA
:101E5000DFE801F007081067829F07073049E7FDB8
:101E6000FC00B1E7687800289CD06868984219D2D5
:101E700002201BE0B0EE612AC0EE821A11EE900A39
:101E8000904201DDF0EE411AF0EE480A21EE800AA0
:101E900005A8FFF705FF05AD95E80F008DE80F00D9
:101EA000606800E057E1B84272DB082084ED018AE7
:101EB000207050E1B0EE602AC2EE210A10EE900AC6
:101EC000904201DDF0EE410A05A860EEA80AFFF796
:101ED000E7FE05AD95E80F008DE80F006068B84299
:101EE000E2DB0920E2E7B0EE602AC2EE210A10EE42
:101EF000900A904201DDF0EE410A05A871EE600AF9
:101F000060EEA80AFFF7CCFE05AD95E80F008DE85E
:101F10000F006068B842C7DB2046FFF7E3FE0320EE
:101F2000C4E7F0EE480A05A8FFF7BAFE05AE96E84A
:101F30000F008DE80F0060684845B5DB6878002821
:101F400026D0696804AA2046FFF75AFE0028F7D079
:101F50000498A062042060E0B0EE602AC2EE210A7C
:101F600010EE900A904201DDF0EE410A05A860EE05
:101F7000A80AFFF795FE05AD95E80F008DE80F0064
:101F80006068B84204DB2046FFF7ACFE05208DE711
:101F900089E0F0EE680AB0EE409A05A8FFF780FEEF
:101FA00005AF97E80F008DE80F00606848457ADBC1
:101FB0006878002877D0696804AA2046FFF720FED9
:101FC000002870D0A16A0498FFF798FE002801DA73
:101FD000414200E00146049AA1F58071E262B1F548
:101FE000706F606310D90520607084F84C600C201D
:101FF000C4ED0F8A84F84060207084ED018AF0EE11
:10200000680AB0EE490A66E0002801DD012001E01F
:102010004FF0FF3084F848000A20207084ED018AD8
:1020200099E0B0EE602AC2EE210AB0EE602A12EE0C
:10203000100A904201DDF0EE410A05A871EE600A37
:1020400060EEA80AFFF72CFE05AD01E04FE00BE0C3
:1020500095E80F008DE80F006068B84278DB2046F5
:10206000FFF740FE0B2021E7F0EE480AF0EE408A31
:1020700005A8FFF715FE05AF97E80F008DE80F00E4
:102080006068484564DB687868B1696804AA2046DE
:10209000FFF7B6FD38B1A16A0498FFF72FFE0028BC
:1020A00002DA414201E053E00146049A2263B1F5AD
:1020B000807FA06313DD07206070F0EE480A84F88B
:1020C0004C600C20C4ED0F0A84F840602070C4ED11
:1020D000010AB0EE680A05A8FFF7E2FD33E0A16A45
:1020E0000C20616484ED0F8A84F840A095E7B0EE7F
:1020F000602AC2EE210A10EE900A904201DDF0EE55
:10210000410A05A871EE600A20EE800AD4ED0F0A9C
:10211000FFF7C6FD05AD95E80F008DE80F0060687C
:10212000B84215DB94F8400020B184F84CA006209A
:10213000667002E0072084F84C60207005A884EDEA
:10214000018A00F01DF805AD95E80F008DE80F003D
:102150002078072806D09DE81E0088E80E00C8F801
:102160000C405EE6404600F00BF85AE6CDCCCC3E83
:10217000CDCCCC3ECDCC4C3E00000000CDCC4C3F75
:102180000021016041608160C160704772B6FEE766
:102190001249134B1A1D08601B68101D4B60136811
:1021A0000F4A8B6014320368001DCB601368021D58
:1021B0000B6103680A484B6124381368084A8B6135
:1021C000121F0068C86110680862EFF30880486257
:1021D000EFF309808862BFF34F8F7047B00000248F
:1021E00028ED00E0054805490839026842F002027E
:1021F000026008688004FCD5704700000C48025853
:1022000030B584240D4BCD0744EA002007D0DC68AC
:1022100024F4E664DC60DC6814430443DC60890772
:102220000BD5D3F80C1121F4E661C3F80C11D3F8E7
:102230000C1111430143C3F80C1130BD00200052B2
:10224000CB431D4A9B0720D0CB070AD0D36823F08D
:102250003003D360D3680343D360D36843F088036B
:10226000D360890710D5D2F80C1121F03001C2F8E3
:102270000C11D2F80C110143C2F80C11D2F80C0168
:1022800040F08800C2F80C017047D16821F030019D
:10229000D160D2F80C1121F03001C2F80C11D168D4
:1022A0000143D160D2F80C110143C2F80C119069BE
:1022B00040F0100090617047002000522DE9F04777
:1022C00004250E46804602F0AFFE022E814600D164
:1022D000274DDFF8A0A0284C05EA0A0777B3D4F809
:1022E000100125EA00004000D0B1012E2AD0234978
:1022F000D4F81001084040F00040410026D02049A9
:102300008A6910EA0A0F42EA00028A6101D160611B
:1023100003E020F00040C4F814010120BDE8F0877C
:10232000B8F1FF3FDAD002F07FFEA0EB0901414592
:1023300002D8B8F1000FD1D10320EFE7206925EAD8
:102340000000D1E70F4920690840D6E7012E4FF47D
:10235000803007D0D4F81011C90301D5C4F8140196
:102360000020DBE72169C903FAD56061F8E70000C6
:1023700004000080F0FF10E0002000520000EE9703
:10238000A40A00240000EE1770B504000D4623D007
:1023900015B320680DF092F9F0B160680DF08EF978
:1023A000D0B1A0680DF08AF9B0B120682860B0EE15
:1023B000001ADFED0A1A94EC020A00EE810A20EE00
:1023C000210A85ED010A0DF079F928B168680DF050
:1023D00075F908B1012070BD002070BD3ACD133FE2
:1023E00070B504000D462DED028BB0EE408A4FD043
:1023F000F5B320680DF062F9D0B360680DF05EF9B6
:10240000B0B318EE100A0DF059F988B3F7EE000AD0
:10241000B0EE480A0DF0BAFAB5EEC00AF1EE10FAC5
:1024200003D2F7EE000A30EE200ADFED1A0A60EE62
:10243000208AB0EE680A0DF001FBB0EE408AB0EEE3
:10244000680A0DF077F9D4ED000AB0EE401A94ED69
:10245000010A60EE810A40EE080AC5ED000A94ED1B
:10246000010AD4ED001A20EE010A01EEC80A00E0CC
:102470000EE085ED010A10EE900A0DF01FF938B15B
:1024800068680DF01BF918B10120BDEC028B70BD1E
:102490000020FAE7DB0FC94070B50B480168001D4A
:1024A0000568001D0068084400280CD0074C08226D
:1024B000A11C06F0C5FF04F112012846BDE87040DA
:1024C000042206F0BDBF70BD00E8F11F2801002402
:1024D000F8B50027044615460E46009790F85000C0
:1024E00001280BD0012084F850002046FEF7CAF9DD
:1024F0000100606D04D040F010002DE00220F8BD16
:1025000020F4885040F002006065206806F48032B4
:1025100005F08043134D1A4383682B401A4342F061
:1025200000428260104A20680EE0009B5B1C009312
:10253000934209D3606D84F8507020F0020040F09F
:10254000100060650120F8BD8368DB0FEDD1606D80
:1025500020F0020040F001006065084684F85070E9
:10256000F8BD0000C0FFFE3F00F8C32570B504466B
:10257000006806F096FF0546206806F08AFF0543CE
:1025800001D0012070BD2068034AC168114041F0AC
:102590000041C160002070BDFFFFDF7F7047000079
:1025A0002DE9F84F04464FF0000BDFF8ECA30D4681
:1025B000CDF800B05F4690F850205846F74EE168DD
:1025C000012A0BD0F64B4FF0010984F8509041B12D
:1025D000296A012905D0226EF2B12AE00220BDE865
:1025E000F88F686809283CD1A96A4FF4785049B13E
:1025F0002A6801F07C0CE96A00EA524040EA0C00CB
:10260000084302E0296800EA51402168CA6C1A4078
:102610000243CA64E06524E0C4E917B1A96A286AE4
:1026200031B1EA6A401E01F07C010843104300E02A
:10263000401E2968226E95F804C0521E22660CF0D6
:102640001F0CE26DC1F3846101FA0CF141EA000153
:1026500042EA0102E26504D12068C16C19401143CD
:10266000C164206806F015FFE8B9286800280DDB72
:1026700021680303CA6921D090FAA0F0B0FA80F073
:1026800000F01F0309FA03F00243CA6195F8250020
:1026900095F826100028206813D0C26822F4401252
:1026A00042EA4151C160206806F0FBFE8046206886
:1026B00006F0EFFE58EA00000DD0F6E0C0F38460AB
:1026C000DEE795F82420C368490541EA025123F466
:1026D00040121143E6E7A86A30B1E86A20B195F8E4
:1026E0002500012836D003E095F82500012804D004
:1026F0002068C16821F0007103E02068C16841F0E2
:102700000071C16095F83000012829D02068016966
:1027100021F0020101612A68042320684FF0070CB0
:10272000A96803EAD25318444369C2F304520CFA6D
:1027300002FC914023EA0C030B4343619949096869
:102740002068B9EB117F1BD16B69C068C0F38200B0
:1027500040001DE0606D012740F020006065D1E77A
:102760002168AB8E904ADFF844C20869D5F83880FA
:102770000CEB03431040184340EA08000861CAE725
:10278000C168C068C9066B69E0D500F01000400858
:1027900029698340042914D02A68206806F08DFE38
:1027A000297F22682869012908D0002102EB8000D6
:1027B000026E22F000420A43026676E04FF00041CA
:1027C000F4E72068002106F05AFE000320684FF06D
:1027D000000172D006F053FE90FAA0F0B0FA80F03B
:1027E0002A6811036ED092FAA2F1B1FA81F18842FF
:1027F00004D100232068194606F05FFE20680121FD
:1028000006F03DFE000320684FF001015DD006F0A8
:1028100036FE90FAA0F0B0FA80F02A68110359D081
:1028200092FAA2F1B1FA81F1884204D12068002322
:10283000012106F042FE2068022106F020FE00037E
:1028400020684FF0020148D006F019FE90FAA0F07F
:10285000B0FA80F02A68110344D092FAA2F1B1FADA
:1028600081F1884204D120680023032106F025FE6F
:102870002068032106F003FE000320684FF00301E7
:1028800033D006F0FCFD90FAA0F0B0FA80F02A6890
:1028900011032FD092FAA2F1B1FA81F1884204D14A
:1028A00020680023032106F008FE2068816811F0EB
:1028B000010F22D0E3E000E004E006F0E0FDC0F309
:1028C00084608DE7C2F3846191E706F0D8FDC0F320
:1028D0008460A2E7C2F38461A6E706F0D0FDC0F3EE
:1028E0008460B7E7C2F38461BBE706F0C8FDC0F3BC
:1028F0008460CCE7C2F38461D0E750F8C02F2B7B13
:10290000DFF8ACC0296803F018032CFA03FCC1F30C
:10291000130822EA08020CEA010C42EA0C020260E7
:102920002448E96881426FD12348DFF890C02268CB
:10293000DFF88CE02449824222484FEA4C081346D3
:1029400022D12A68624524D042454BD0A2F1496C7D
:10295000BCF1080C56D0A2F1865CBCF1100C54D02E
:1029600072454DD0DFF864C062455DD0824254D0DC
:102970008A4256D01648824201D1164854E0164881
:10298000824250D115484FE0B2424CD12A6862458C
:1029900026D1012048E000000060025800210240DA
:1029A000004010040010005C1DFE00FC0200FFFF50
:1029B000FFFF0F000000FF4700200240020030042C
:1029C0002000F0140008302E001060320004002AAD
:1029D00000002143000052470000844B0000B84F24
:1029E000424501D153481FE0A2F1496CBCF1080CEB
:1029F00008D0A2F1865CBCF1100C06D0724506D15D
:102A00004D4811E04D480FE01CE04D480CE0DFF868
:102A100034C1624508D0824201D1084604E08A42AE
:102A2000ADD1494800E00020D96902031BD090FADB
:102A3000A0F0B0FA80F000BF00F01F0209FA02F027
:102A40000143D9612D68002D19DA404B2068984266
:102A500001D0B04209D19968B26801F0010102F0D9
:102A60000102114305E0800EE6E7DAF8081001F0F4
:102A7000010141B1606D012740F0200060653846DA
:102A800084F850B0ABE5324A9842DFF8C8C001D0B4
:102A9000B04201D1114600E061468968DFF8B88094
:102AA00001F0E07145451DD15FEA01281AD4504577
:102AB000E5D1984202D0B04200D06246936841F41A
:102AC000000023F0E0710143916025492348096823
:102AD000B1FBF0F04000801C00E0401E0090002898
:102AE000FBD1CCE7DFF87C8045450DD15FEAC1180A
:102AF0000AD45045C3D1984202D0B04200D06246B9
:102B0000936841F080700FE0DFF85C804545B6D1F6
:102B10004D02B4D45045B2D1984202D0B04200D058
:102B20006246936841F4800023F0E07101439160B4
:102B3000A5E70000400020190002B0258000501DCC
:102B4000000180210004002A00209036002002406D
:102B50000023024000630258000084CB400D0300B4
:102B6000E8000024000052C70000B8CF70B50C493F
:102B700004460068884211D10921204600F014F86B
:102B8000054640F20F11204600F00EF80146284697
:102B9000BDE870409FED030A07F098B970BD0000D2
:102BA0000020024017B7D1380068A1F580710F39B5
:102BB0000ED0B1F5837F08D0B1F5037F02D0D0F8F5
:102BC00080007047D0F88C007047D0F888007047BC
:102BD000D0F88400704770472DE9F041474D044616
:102BE0000068474FA84201D0B84201D1454900E0F2
:102BF0004549896801F01F0606F04BFC08BB2068B8
:102C0000C168C06C10F4C07F01F0004000D190B1E9
:102C100094F85000012814D0012084F85000204678
:102C2000FDF768FE01004FF000020CD084F8502040
:102C30000846BDE8F081606D40F02000606501202D
:102C4000F7E70220F5E7606DC00504D5A06D20F020
:102C50000800A06500E0A265636D42F2010C2068E7
:102C600023EA0C03B84243F48053636501D12B4639
:102C700000E00346834200D01EB9636D23F4801345
:102C800063656023036084F850202068C268920264
:102C900003D5426842F480624260206908282068B7
:102CA000426807D022F0400242602068426842F049
:102CB000200206E022F0200242602068426842F0D2
:102CC000400242602068B84200D00546854209D0E3
:102CD00046B1062E06D0072E04D0606D40F4801059
:102CE0006065A5E7C26812F0007FA1D18268074B3A
:102CF0001A4042F0080282609AE700000020024079
:102D0000002102400023024000630258C0FFFF7F01
:102D100070B5044690F85000012809D0012084F8CD
:102D2000500002212046FDF73BFD050002D019E0CE
:102D3000022070BD2068416821F48C6141602068E8
:102D400006F0AFFB18B1606D20F4805009E020461A
:102D5000FDF798FD050005D1606D20F4885040F026
:102D600001006065002084F85000284670BD70475F
:102D7000704700002DE9F0470F4690F850109AB0C8
:102D8000044601294FF0000915D00026DFF8F8802D
:102D9000012084F8500015961696216841450ED101
:102DA0003A4D0095284606F07CFB8246206806F0E6
:102DB00078FB60B10EE002201AB0BDE8F087606DCC
:102DC00084F8506040F0200060650120F4E7BAF11B
:102DD000000F09D0616D4FF0010941F020006065DE
:102DE000484684F85060E7E720684146884201D0B1
:102DF000A84201D1264800E0264840F61F72D7F8C5
:102E000000C0254BBCF1000F23D0D0F808C0D7F884
:102E100004802CF4404C4CEA080CC0F808C0D4F8EC
:102E200000C08C4501D0AC4507D18968AB6801F082
:102E3000010103F00103194302E0996801F0010167
:102E40000029CDD1BD68396883682943934319436C
:102E500017E0876827F44047876027688F4201D0D2
:102E6000AF4207D18968AB6801F0010103F00103AB
:102E7000194302E0996801F001010029B0D181688D
:102E800091438160ACE70000002002400021024035
:102E90000023024000630258006002582DE9F84FF9
:102EA0000446EB4E0020DFF8ACB30090002794F806
:102EB00050000D46DFF8A0A3012808D04FF001090B
:102EC00084F85090206806F0E8FA18B171E1022009
:102ED000BDE8F88F286800280EDB21680303CA6963
:102EE00028D090FAA0F0B0FA80F000BF00F01F03E5
:102EF00009FA03F00243CA61D5E900124FF00C0C45
:102F000020681F23C1F384610CEA921C02F01F02A7
:102F1000604493409140026B9A430A4302632068E5
:102F200006F0BBFA8046206806F0AFFA58EA0000C7
:102F300003D08DE0C0F38460D8E72A6804232068BA
:102F40004FF0070CA96803EAD25318444369C2F34F
:102F500004520CFA02FC914023EA0C030B43436138
:102F6000BE490968B9EB117F06D121686869C96853
:102F7000C1F38201490008E02068C168C906C16840
:102F80006869F5D501F010014908884029690429CC
:102F90002ED023682A6803EB810102F0F8420B6E01
:102FA000024303F0004010430866697E22682869E6
:102FB000012917D05FF0000102EB8000026E22F0C1
:102FC00000420A430266297E20682A6901290CD042
:102FD0000021036902F01F02914023F4F0420A43EA
:102FE000026135E04FF00041E6E74FF40061F0E7A1
:102FF00020682978026E02F0F842B2EB816F03D1AB
:10300000016E21F00041016620682978426E02F0CD
:10301000F842B2EB816F03D1416E21F0004141666D
:1030200020682978826E02F0F842B2EB816F03D1FA
:10303000816E21F00041816620682978C26E02F01D
:10304000F842B2EB816F03D1C16E21F00041C1663D
:103050002068816811F0010F72D150F8C03F2A7BBF
:10306000DFF8FCC1296802F018022CFA02FCC1F357
:10307000130823EA08030CEA010C43EA0C0303607B
:10308000E96859456CD177482268DFF8DCC1DFF880
:10309000DCB18242DFF8D8E17648774BDFF8DC819B
:1030A00022D12968614524D0B1EB4C0C38D0A1F174
:1030B000496CBCF1080C35D0A1F1865CBCF1100C58
:1030C00032D0DFF8BCC1614528D071453AD0814289
:1030D00030D0994232D06B48814201D16A4831E008
:1030E00041452ED169482DE0B2422AD12968614577
:1030F00001D1012026E0A1F1066CBCF1040C0FD037
:10310000A1F1496CBCF1080C0CD0A1F1865CBCF1BA
:10311000100C09D0DFF868C1614507D15C4811E0A7
:1031200058460FE05B480DE05B480BE0714509D065
:10313000814201D1184605E09942D1D1574801E0BA
:103140003CE00020D16903031AD090FAA0F0B0FA55
:1031500080F000BF00F01F0309FA03F00143D161C2
:10316000D5F800C0BCF1000F28DA3E4B20684C496E
:10317000DFF83091984201D0B04203D10A4602E014
:10318000800EE7E74A469268984202F0E07201D06A
:10319000B04209D19D68D6F8088005F0010508F015
:1031A000010845EA080503E0DAF8085005F00105D2
:1031B0004DB1606D012740F020006065002084F86B
:1031C0005000384684E6384DAC451CD115021AD45F
:1031D0005045F3D1984202D0B04200D049468B68A6
:1031E00042F4000023F0E07202438A6030492F4825
:1031F0000968B1FBF0F04000801C00E0401E009028
:103200000028FBD1DAE72B4DAC450CD1D5010AD40F
:103210005045D3D1984202D0B04200D049468B6885
:1032200042F080700EE0244DAC45C7D15502C5D4A4
:103230005045C3D1984202D0B04200D049468B6875
:1032400042F4800023F0E07202438A60B6E7000097
:10325000002102400000FF47006002580010005C9F
:10326000FFFF0F0000200240020030044000201940
:103270000004002A0008302E001060320000844B49
:103280002000F01400002143000052470000B84F16
:103290000002B0258000501D0001802100209036E2
:1032A0000023024000630258000084CB400D03005D
:1032B000E8000024000052C70000B8CF70477047F4
:1032C0002DE9F05F0446006806684568DFF8708203
:1032D000DFF870B2DFF87092404501D0484501D167
:1032E000584600E09948806800F01F07B0070ED5E7
:1032F000A8070CD5606DC00603D4606D40F4006073
:1033000060652046FFF74AF92168022008607007CF
:1033100001D5680703D4300737D5280735D5606D48
:10332000C00603D4606D40F400706065206806F04C
:10333000BCF820B32068484501D1424600E002466F
:10334000824208D03FB1052F05D0092F03D0484550
:1033500003D1414602E0C16801E00146C968890421
:103360000DD4016809070AD506F097F858B3606DC7
:1033700040F010006065A06D40F00100A06520469F
:10338000FFF79CFF21680C200860B00601D5A80655
:1033900003D4700658D5680656D5606DC00603D4B0
:1033A000606D40F4005060652068C16C11F4C07F0E
:1033B0001AD000218A4606F078F80246206848456F
:1033C00014D1434613E02068416821F00C014160AC
:1033D000606D20F480706065606DC004CFD4606D56
:1033E00040F001006065CAE70121E3E7034683423C
:1033F00008D03FB1062F05D0072F03D0484503D191
:10340000414602E0C16801E00146C968BAF1000F17
:1034100014D08B0102D58AB18A040FD402685206F7
:103420000CD589020AD406F030F8E8B3606D40F09C
:1034300010006065A06D40F00100A0652046FFF718
:1034400095FB21686020086030060BD5280609D559
:10345000606D40F480306065204600F08DF9216891
:1034600080200860F0050CD5E8050AD5606D40F4B1
:10347000003060652046FFF77AFC21684FF48070C9
:103480000860B0050CD5A8050AD5606D40F4802011
:1034900060652046FFF76CFC21684FF400700860FF
:1034A000F00631D5E80600E00AE02DD5206BE8B142
:1034B0002068EFB3404501D0484512D1584611E08D
:1034C0002068416821F060014160606D20F4805007
:1034D0006065606DC005B1D4606D40F0010060654D
:1034E000ACE71A48806800F4404050B1606D40F489
:1034F00080606065A06D40F00200A0652046FFF787
:10350000DEFE216810200860700517D5680515D506
:10351000616D4FF4806041F480416165A16D41F0BF
:103520000801A165216808602046BDE8F05F00E061
:1035300001E0FFF750BBC0688007D6E7BDE8F09F09
:103540000020024000230240002102400063025894
:10355000F8B54FF0000604003546009602D0606DC5
:1035600010B107E00120F8BD204600F007F9A6657C
:1035700084F8506020688168C1F3407119B1816896
:10358000704A1140816020688168C1F3007181B97F
:1035900081686D4A114041F0805181606C496B48EF
:1035A0000968B1FBF0F0401C00E0401E00900028CC
:1035B000FBD120688168C1F3007141B9616D0125BB
:1035C00041F010016165A16D41F00101A16505F0B7
:1035D00064FF616DC90600D420B1606D012540F023
:1035E000100093E0606D20F4807040F00200606590
:1035F0002068816811F0010F1FD1564A564B904246
:1036000001D0984207D191689E6801F0010106F04F
:103610000106314303E05149896801F0010161B9B4
:10362000904201D0984201D14D4800E04D48826857
:10363000616822F47C120A43826001F0EFFC41F2DF
:103640000301884202D9A06810280CD0617D227F36
:10365000A368206B490341EA024118430843217FD4
:1036600001290CD010E0607D227F216B400340EAED
:10367000024241F01000104340F00C00EFE7218CB3
:10368000394A02EB41410843616A29B1A26A01F457
:103690007871014342EA01002168344BCA681A403C
:1036A0000243CA60206805F0F8FE0646206805F06F
:1036B000ECFE30431DD1216844F20303267DE26A0B
:1036C000C86842EA863298431043C86094F83800CC
:1036D00001281ED02068016921F0010101612068E4
:1036E000626B016921F07041114301612046FCF7D2
:1036F000D3FFE068012820681CD0016B21F00F0186
:103700000163606D20F0020040F001006065284612
:10371000F8BD2068A28F164FD4E9101C154E07EB98
:103720000247A36C026941EA0C013B433240194352
:103730001143D3E7A269016B521E21F00F0111431F
:10374000DEE70000C0FFFF5FC0FFFF7F400D03000A
:10375000E8000024002002400021024000600258DE
:1037600000230240006302580000FEFF03C0F0FF88
:103770000100FFFF1EF800FC70470000F0B5B7B075
:103780000446142130A8FCF714FFC0216846FCF75A
:1037900010FF2949206888424CD10DF1080C0325FF
:1037A00002200C238CE829000022299220271446AD
:1037B000C0260796CDE90872CDE905504FF40021E7
:1037C0006846CDE9001202F013FE08B1FEF7DEFCF8
:1037D0001A48016841F020010160006800F02000F3
:1037E000359016480830016841F001010160016818
:1037F00001F001013591016841F0020101600068AA
:1038000030A9329400F0020035900120CDE9300556
:103810000B4801F0E7FA309530A90A48CDE9315458
:1038200001F0E0FA00221220114601F0C3FC122040
:1038300001F0B2FC37B0F0BD00200240D84402587D
:1038400000000258000402582DE9F84F044601F028
:10385000EBFB00903CB194F83500022806D08021A3
:1038600061650020E4E00120BDE8F88FC74DC74E38
:10387000C649183520683036DFF81483DFF8149312
:103880008842DFF814A3DFF814B32ED0A8422CD05E
:10389000B0422AD0404528D0484526D0504524D0B3
:1038A000584522D0BD4A183290421ED0BC4A9042A0
:1038B0001BD0BB4A1832904217D0B94A30329042DE
:1038C00013D0B74A483290420FD0B54A6032904286
:1038D0000BD0B34A7832904207D0B14A903290422E
:1038E00003D0AF4AA832904209D1026822F01E02EA
:1038F00002602068426922F08002426103E00268AF
:1039000022F00E02026027688F4238464DD0A8424E
:103910004BD0B04249D0404547D0484545D05045AE
:1039200043D0584541D09D4A183290423DD09C4AE0
:1039300090423AD09A4A1832904236D0984A303261
:10394000904232D0964A483290422ED0944A603209
:1039500090422AD0924A7832904226D0904A9032B1
:10396000904222D08E4AA83290421ED08D4A904278
:103970001BD08C4A1432904217D08A4A2832904287
:1039800013D0884A3C3290420FD0864A503290423F
:103990000BD0844A6432904207D0824A78329042F7
:1039A00003D0804A8C32974204D1206E026822F400
:1039B0008072026075492068884228D0A84226D0CB
:1039C000B04224D0404522D0484520D050451ED09A
:1039D00058451CD071491831884218D07049884226
:1039E00015D06F491831884211D06D493031884265
:1039F0000DD06B494831884209D06949603188420D
:103A000005D067497831884201D065499031016815
:103A100021F0010101600EE001F006FB0099401A5F
:103A2000052808D9202262650321002084F835107A
:103A300084F8340017E73868C007EDD1534A0121F4
:103A4000206890422ED0A8422CD0B0422AD04045C7
:103A500028D0484526D0504524D0584522D04F4B39
:103A6000183398421ED04E4B98421BD04C4B183303
:103A7000984217D04A4B3033984213D0484B4833C2
:103A800098420FD0464B603398420BD0444B78336A
:103A9000984207D0424B9033984203D0404BA83312
:103AA000984208D194F85C703F23A06D07F01F077F
:103AB000BB40836007E094F85C30A06D03F01F0307
:103AC00001FA03F34360206890424DD0A8424BD0E6
:103AD000B04249D0404547D0484545D0504543D0F5
:103AE000584541D02D4A183290423DD02C4A904240
:103AF0003AD02B4A1832904236D0294A303290427E
:103B000032D0274A483290422ED0254A6032904225
:103B10002AD0234A7832904226D0214A90329042CD
:103B200022D01F4AA83290421ED01E4A90421BD07B
:103B30001C4A1432904217D01A4A2832904213D0AD
:103B4000184A3C3290420FD0164A503290420BD065
:103B5000144A6432904207D0124A7832904203D01D
:103B6000104A8C3290420BD1D4E919024260E06EC7
:103B700030B1026822F480720260D4E91C02426013
:103B8000002084F8351084F834006DE610000240FF
:103B9000580002407000024088000240A00002402D
:103BA00010040240085402582DE9F05F28B190F843
:103BB0003510022904D0802141650120BDE8F09F25
:103BC000904C904B0168183C18338E4ADFF83C92B9
:103BD000A1428D4CDFF838E28E4FDFF83CB2DFF8BF
:103BE0003CA28F4D8F4E31D091422FD099422DD093
:103BF000A1422BD0494529D0714527D0B94225D0C3
:103C0000DFF810C20CF1180C61451FD0DFF808C2B4
:103C1000ACF1600C614519D0DFF8FCC1ACF1480C87
:103C2000614513D0DFF8F0C1ACF1300C61450DD027
:103C3000DFF8E4C1ACF1180C614507D0594505D057
:103C4000514503D0A94201D0B1422CD1DFF8B4C113
:103C50004FF0040880F83580ACF1180C61451DD098
:103C600091421BD0994219D0A14217D0494515D095
:103C7000714513D0B94211D06648183081420DD039
:103C800065486038814209D063484838814205D090
:103C900061483038814201D05F481838086820F008
:103CA00001000860ABE0D1F800C02CF00E08DFF88E
:103CB00054C1C1F80080ACF1180C0168614527D0EF
:103CC000914225D0994223D0A14221D049451FD00D
:103CD00071451DD0B9421BD0DFF838C10CF1180C6A
:103CE000614515D0DFF830C1ACF1600C61450FD0F3
:103CF000DFF824C1ACF1480C614509D0DFF818C1E8
:103D0000ACF1300C614503D0DFF80CC1ACF1180CFC
:103D1000D1F800C02CF0010CC1F800C0DFF8E4803D
:103D20004FF0010C0168A8F11808414546D09142B6
:103D300044D0994242D0A14240D049453ED071453D
:103D40003CD0B9423AD0334A1832914236D0324A46
:103D5000603A914232D0304A483A91422ED02E4AAF
:103D6000303A91422AD02C4A183A914226D05945ED
:103D700024D0514522D0A94220D0B1421ED02A4A97
:103D800091421BD0284A1432914217D0264A283239
:103D9000914213D0244A3C3291420FD0224A5032F1
:103DA00091420BD0204A6432914207D01E4A7832A9
:103DB000914203D01C4A8C32914218D1016E0A689C
:103DC00022F480720A6090F85C20816D02F01F027C
:103DD0000CFA02F24A60D0E919124A60C16E31B1A0
:103DE0000A6822F480720A60D0E91C124A6000223C
:103DF000016D80F835C080F8342001B1884700207B
:103E0000DCE600002800024058000240700002403A
:103E100088000240A0000240700402408804024072
:103E2000A0040240B804024008540258406D704794
:103E30002DE9FC5F0446F74E0020DFF8D8830090A0
:103E40004FF41652F44808F11808A56DDFF8C49332
:103E5000DFF8C0A3016809F1300920680AF1480AB7
:103E6000B1FBF2F1B04201912F68D5F800C0DFF844
:103E7000ACB335D04146884232D0484530D0504569
:103E80002ED058452CD0E5491831884228D0E34936
:103E90003031884224D0E1494831884220D0E0497D
:103EA00088421DD0DE491831884219D0DC493031B2
:103EB000884215D0DA494831884211D0DFF860E3F2
:103EC0000EF1600E70450BD0D54A7832904207D083
:103ED000D34B9033984203D0D149A83188427DD149
:103EE00094F85C20082102F01F0201FA02F23A4223
:103EF0004AD0B04232D0404530D048452ED050450F
:103F00002CD058452AD0C54A1832904226D0C34AF0
:103F10003032904222D0C14A483290421ED0C04A2C
:103F200090421BD0BE4A1832904217D0BC4A303261
:103F3000904213D0BA4A483290420FD0B84A603209
:103F400090420BD0B64A7832904207D0B44A9032B1
:103F5000904203D0B24AA832904203D1026802F0E4
:103F6000040202E0026802F008026AB1026822F06C
:103F70000402026094F85C0000F01F008140A96018
:103F8000606D40F00100606594F85C00012100F074
:103F90001F008140394240D02068B04234D04045B3
:103FA00032D0484530D050452ED058452CD09B4A71
:103FB0001832904228D0994A3032904224D0974A01
:103FC0004832904220D0964A90421DD0944A1832EE
:103FD000904219D0924A3032904200E0AFE113D0C3
:103FE0008F4A483290420FD08D4A603290420BD0B7
:103FF0008B4A7832904207D0894A9032904203D05F
:10400000874AA83290427DD1406910F0800F04D0D9
:10401000A960606D40F00200606594F85C000421C6
:1040200000F01F00814039423ED02068B04232D0BB
:10403000404530D048452ED050452CD058452AD048
:10404000764A1832904226D0744A3032904222D0BA
:10405000724A483290421ED0714A90421BD0704A38
:104060001832904217D06E4A3032904213D06C4AC8
:10407000483290420FD06A4A603290420BD0684A70
:104080007832904207D0664A9032904203D0644A18
:10409000A83290424ED1006810F0020F04D0A960FF
:1040A000606D40F00400606594F85C00102100F041
:1040B0001F008140394258D02068B04234D040457A
:1040C00032D0484530D050452ED058452CD0534A98
:1040D0001832904228D0514A3032904224D04F4A70
:1040E0004832904220D04E4A90421DD04C4A18325D
:1040F000904219D04A4A3032904215D0484A48324C
:10410000904200E014E00FD0454A603290420BD05C
:10411000434A7832904207D0414A9032904203D0CD
:104120003F4AA832904207D1006800F0080006E03C
:10413000006872E70068B7E7006800F00400A0B10B
:10414000A96020680168490304D50068000308D508
:10415000A16C07E00168C90503D4016821F00801DA
:104160000160216C09B12046884794F85C00202149
:1041700000F01F008140394279D02068B04232D02F
:10418000404530D048452ED050452CD058452AD0F7
:10419000224A1832904226D0204A3032904222D011
:1041A0001E4A483290421ED01D4A90421BD01C4AE3
:1041B0001832904217D01A4A3032904213D0184A1F
:1041C000483290420FD0164A603290420BD0144AC7
:1041D0007832904207D0124A9032904203D0104A6F
:1041E000A832904203D1006800F0100002E000689D
:1041F00000F00200B0B3A96094F8350004282068EC
:1042000001680FD049037ED5006800032BD4616C90
:104210002AE0000010000240E80000247000024084
:104220001004024021F0160101602068416921F06C
:1042300080014161206C08B9A06C20B12068016840
:1042400021F00801016094F85C303F21012003F067
:104250001F0300229940A96084F8350084F83420B7
:10426000216D65E003E0E16B09B120468847606D90
:1042700000287DD0606DC00759D02068042184F8E3
:104280003510B0422BD0404529D0484527D0504565
:1042900025D0584523D09D49884220D09B491831CC
:1042A00088421CD099493031884218D098498842B8
:1042B00015D097491831884211D09549303188423C
:1042C0000DD093494831884209D0914960318842E4
:1042D00005D08F497831884201D08D4990310168ED
:1042E00021F00101016020680099019A491C0091A8
:1042F000914202D80168C907F6D10068C00710D002
:1043000003200FE0FFE70168C905ACD40368012171
:10431000002223F01003036084F8351084F8342061
:10432000A1E7012084F83500002084F83400E16C16
:1043300000291DD002B02046BDE8F05F084775494E
:1043400088421DD073491431884219D071492831EF
:10435000884215D06F493C31884211D06D495031A7
:1043600088420DD06B496431884209D0694900E028
:1043700084E07831884203D066498C3188427DD10F
:1043800094F85C800427016808F01F0807FA08F712
:1043900017EA0C0F009746D04F0744D500980F043A
:1043A000686003D5C8033CD4A16CC1E7880638D443
:1043B0002068B0422DD055496039884229D04845FF
:1043C00027D0504525D0584523D05049884220D089
:1043D0004E49183188421CD04C493031884218D09F
:1043E0004B49884215D04A491831884211D0484972
:1043F000303188420DD046494831884209D0704555
:1044000007D0904205D0984203D04149A831884254
:1044100003D1016821F0080102E0016821F00401E4
:104420000160216C84E7022707FA08F717EA0C0FEE
:1044300000974ED08F074CD500980F04686003D5C5
:10444000C80344D4616C73E7880640D42068B04246
:104450002FD02E49603988422BD0484529D050456D
:1044600027D0584525D02949884222D027491831DC
:1044700088421ED025493031884200E044E018D0FF
:104480002349884215D022491831884211D0204949
:10449000303188420DD01E494831884209D07045DC
:1044A00007D0904205D0984203D01949A8318842DC
:1044B00003D1016821F0140102E0016821F00A0132
:1044C0000160012184F83510002084F83400E16B8C
:1044D0002EE7082202FA08F212EA0C0F14D009079C
:1044E00012D5016821F00E01016094F85C100120E2
:1044F000002201F01F0100FA01F16960606584F893
:10450000350084F8342012E7BDE8FC9F88000240A3
:1045100010040240085402582DE9F05F044600F0F0
:1045200083FD002C07467DD0E34E022120684FF02A
:104530000308DFF888934FF00005DFF884A3B0424A
:10454000DFF880B334D0DC4A1832904230D048458E
:104550002ED050452CD058452AD0DA4A18329042F5
:1045600026D0D84A3032904222D0D64A48329042A1
:104570001ED0D54A90421BD0D34A1832904217D051
:10458000D14A3032904213D0CF4A483290420FD0B5
:10459000CD4A603290420BD0CB4A7832904207D05D
:1045A000C94A9032904203D0C74AA83290427DD186
:1045B00084F83510B04284F834502ED0BE491831FA
:1045C00088422AD0484528D0504526D0584524D086
:1045D000BC491831884220D0BA49303188421CD0B9
:1045E000B8494831884218D0B749884215D0B649F1
:1045F0001831884211D0B449303188420DD0B249C7
:104600004831884209D0B0496031884205D0AE496E
:104610007831884201D0AC499031016821F0010124
:10462000016008E027E100BF00F0FEFCC01B052888
:1046300001D920211CE120680068C007F4D104F1F1
:1046400008002168D4E9053C8E4685C809681043F6
:10465000D4E907281F43636A38439C4F40EA0C00A3
:104660001043394040EA0800042B40EA010003D11E
:10467000D4E90B1211430843954909686FF30F0100
:10468000B1F1005F0FD36168A1F12902052A08D9B1
:10469000163A032A05D9083A012A02D94F390329C3
:1046A00001D840F48010CEF8000000E023E020683C
:1046B000676A4069042F20F0070047EA00070DD120
:1046C000D4E90A01074349B12046FDF731F828B182
:1046D00040206065012184F83510CCE020684761F6
:1046E0002046FCF743FF94F85C203F2102F01F02B4
:1046F0009140816054E0774A90421BD0754B14334F
:10470000984217D0734B2833984213D0714B3C33E7
:1047100098420FD06F4B503398420BD06D4B64339F
:10472000984207D06B4B7833984203D0694B8C3357
:1047300098427DD184F8351084F83450664B016876
:10474000A26801EA030E402A73D0802A72D00022A8
:10475000D4E90378D4E9053142EAD70242EAD8081D
:104760005C4AD4E9077C48EAD30848EAD10141EA27
:10477000D701524241EA1C11142341EA0E010160A3
:1047800020681044B0FBF3F08000E0652046FCF7A1
:10479000EDFE94F85C20012102F01F02914041607F
:1047A0002068B04257D044491831884253D0484518
:1047B00051D050454FD058454DD0424918318842CC
:1047C00049D040493031884245D03E49483188423D
:1047D00041D03D4988423ED03B49183188423AD0C9
:1047E00039493031884236D037494831884232D051
:1047F0003549603188422ED03349783188422AD0F9
:1048000031499031884226D02F49A831884222D0A0
:10481000304988421FD02F49143188421BD02D497E
:104820002831884217D02B493C31884213D002E00E
:104830001DE017E018E02749503188420BD0254988
:104840006431884207D023497831884203D0214916
:104850008C31884229D12046FCF7E2FEA0688028EE
:104860000CD00CE0102273E74FF4804270E7402137
:10487000616584F835800120BDE8F09F6560216E98
:1048800020790860D4E9190141606068401E07285A
:1048900008D82046FCF712FFE06E0560D4E91C0141
:1048A000416002E0E566256765670120656584F87B
:1048B00035000020E0E70000100002404000024008
:1048C0005800024070000240100402403F8010FE79
:1048D0000010005C085402580F00FEFF2DE9F84F4D
:1048E00004008C464FF00000009014D094F834007F
:1048F000012812D094F835500120002184F83400AA
:10490000012D0CD0C00260650120009084F83410A5
:104910000098BDE8F88F0120FBE70220F9E78C4DF5
:104920000226206884F83560A8428A4D61658A4E67
:104930008A4FDFF82C82DFF82C92DFF82CA2DFF808
:104940002CB226D0A84224D0B04222D0B84220D0E7
:1049500040451ED048451CD050451AD0584518D067
:104960008349884215D082491831884211D0804944
:10497000303188420DD07E494831884209D07C4987
:104980006031884205D07A497831884201D078492F
:104990009031016821F00101016061462046FCF779
:1049A000F1FE6B49206888422CD0A8422AD0B04240
:1049B00028D0B84226D0404524D0484522D0504582
:1049C00020D058451ED06A4A90421BD0684A1832FF
:1049D000904217D0664A3032904213D0644A48322F
:1049E00090420FD0624A603290420BD0604A7832D7
:1049F000904207D05E4A9032904203D05C4AA8327F
:104A000090420CD1026822F01E0242F016020260AF
:104A1000206C88B12068026842F008020BE002684E
:104A200022F00E0242F00A020260206C20B12068DF
:104A3000026842F004020260206888424BD0A8421B
:104A400049D0B04247D0B84245D0404543D0484510
:104A500041D050453FD058453DD0454A90423AD08C
:104A6000434A1832904236D0414A3032904232D0D6
:104A70003F4A483290422ED03D4A603290422AD07E
:104A80003B4A7832904226D0394A9032904222D026
:104A9000374AA83290421ED0364A90421BD0354A3F
:104AA0001432904217D0334A2832904213D0314A00
:104AB0003C3290420FD02F4A503290420BD02D4AB8
:104AC0006432904207D02B4A7832904203D0294A70
:104AD0008C3290420DD1206E0268D20303D5026859
:104AE00042F480720260E06E18B1026842F4807293
:104AF00002602068884226D0A84224D0B04222D04A
:104B0000B84220D040451ED048451CD050451AD050
:104B1000584518D01649884215D015491831884291
:104B200011D01349303188420DD0114948318842A3
:104B300009D00F496031884205D00D49783188424B
:104B400001D00B499031016841F001010160DFE6BD
:104B5000100002402800024040000240580002407D
:104B60007000024088000240A0000240B8000240ED
:104B7000100402400854025870B5044600F054FA7C
:104B80000546601C02D004480078044400F04CFA4A
:104B9000401BA042FAD370BDDC0000242DE9F05F79
:104BA0000446414888460026017D01291AD0012289
:104BB00002758146B246C0F818A02079C00706D019
:104BC00001214CF25030FDF779FB00B1012620792C
:104BD00080070AD502214CF25030FDF76FFB20B15F
:104BE00001265DE00220BDE8F09F6EBB20682F4DDE
:104BF000012807D04FF0FF31C8F80010A76840F235
:104C0000047B48E061682069FDF71AFB2079C00742
:104C10000AD001214CF25030FDF750FB00B10126C3
:104C2000E86820F00800E8602079800738D5022184
:104C30004CF25030FDF742FB00B10126D5F80C01D3
:104C400020F00800C5F80C012AE0226938466168A6
:104C5000FDF7D6FA2079C00709D001214CF2503077
:104C6000FDF72CFBE968064621EA0B01E960207993
:104C700080070BD502214CF25030FDF71FFBD5F811
:104C80000C11064621EA0B01C5F80C1116B1C8F843
:104C9000007005E07F1CD4E902010844B842D4D872
:104CA000304689F814A09EE7A40A00240020005290
:104CB0000A48C16841F00101C160C168C9070BD051
:104CC000D0F80C1141F00101C0F80C11D0F80C0122
:104CD000C00701D00020704701207047002000521B
:104CE0002DE9F05F2C48144608250E46027D012A66
:104CF00008D001230375A1F100621F05BA4204D256
:104D0000012707E00220BDE8F09FA6F10161B9424A
:104D10000DD202274FF0000A8146C0F818A04CF2CD
:104D2000503B39465846FDF7C9FA10B127E001203B
:104D3000E9E7DFF86880012F404623D0D0F80C1156
:104D400041F00201C0F80C11BFF36F8FBFF34F8F1A
:104D500001CC6D1E15F0FF0501C6F9D1BFF36F8FB1
:104D6000BFF34F8F39465846FDF7A8FA012F414649
:104D70000DD0D1F80C2122F00202C1F80C2189F8E3
:104D800014A0C0E7C16841F00201C160DCE7CA6855
:104D900022F00202CA60F2E7A40A002400200052B6
:104DA0000D480E4A0E49C368DB0704D042604160DB
:104DB000C368DB070BD1D0F80C31DB0709D0C0F892
:104DC0000421C0F80411D0F80C01C00701D0012063
:104DD0007047002070470000002000522301674503
:104DE000AB89EFCD2DE9F84F03247D4D00234FF023
:104DF00001094FF0B04B4FF00F0AE9E009FA03F751
:104E00003A4076D00E7906F00306012E01D0022E2C
:104E100018D1D0F808C04FEA430ECE6804FA0EF855
:104E20002CEA080C06FA0EF646EA0C068660D0F864
:104E300004C00E792CEA070CC6F300169E4046EA21
:104E40000C0646600E79F643B6070BD0C6684FEAEB
:104E500043088F6804FA08FC26EA0C0607FA08F7EC
:104E60003743C7600E7906F00306022E12D1DE0822
:104E70000F694FEA437C00EB8606B646366A4FEA76
:104E8000DC6C0AFA0CF807FA0CF726EA0806374336
:104E9000CEF820700F7906684FEA430807F0030741
:104EA00004FA08FC07FA08F726EA0C0637430760FD
:104EB0004E6816F4403F1CD04A4E376847F0020750
:104EC000376036689F0706F00206009623F0030657
:104ED00006F1B046B6463F0FD6F80864DFF8088101
:104EE0000AFA07FC404526EA0C0603D14FF0000CF5
:104EF00041E06CE0DFF8F4C0604502D14FF0010CF6
:104F000039E0DFF8ECC0604502D14FF0020C32E02E
:104F1000DFF8E0C0604502D14FF0030C2BE0DFF872
:104F2000D8C0604502D14FF0040C24E0DFF8CCC0BB
:104F3000604502D14FF0050C1DE0DFF8C4C06045AC
:104F400002D14FF0060C16E0DFF8B8C0604502D180
:104F50004FF0070C0FE0DFF8B0C0604502D14FF012
:104F6000080C08E0DFF8A4C0604502D14FF0090C3E
:104F700001E04FF00A0C0CFA07FC4CEA060CCEF8E4
:104F800008C44F68DBF80060FF0226EA020600D57D
:104F900016435F46CBF80060D1F804C0DBF804602C
:104FA0005FEA8C2C26EA020600D516437E606E6806
:104FB0004F6826EA0206BF0300D516436E602E68CE
:104FC0004F6826EA0206FF0300D516432E605B1CDD
:104FD0000A6832FA03F67FF411AFBDE8F88F0000DB
:104FE00080000058F444025800000258000402589F
:104FF00000080258000C0258001002580014025811
:1050000000180258001C02580020025800240258C0
:105010000AB1816170470904FBE70000014800689C
:10502000000C70470010005C014880687047000069
:10503000DC000024024881680278114481607047D6
:10504000DC000024032010B500F0D4F802F01AF8B8
:105050000F4A104914681368C4F3032203F00F03C6
:105060008A5CC95C02F01F0201F01F01D0400A4AAD
:1050700020FA01F11160094908600F2000F010F8D2
:1050800008B1012010BD00F079F8002010BD00002B
:105090001844025868010108EC000024E8000024CC
:1050A00070B50D4D04462878A0B14FF47A71B1FB6C
:1050B000F0F00A490968B1FBF0F003F07EF948B955
:1050C000102C07D200222146501E00F073F8002059
:1050D0006C6070BD012070BDDC000024E80000247D
:1050E000154BF0B5083B427813491A600B680A1F4C
:1050F00023F001030B6043681360057BC67A827A54
:10510000437B2D07847B45EA0665C77B90F809C081
:10511000067A90F800E045EAC24040EA834040EA5F
:10512000444040EA074040EA0C2040EA460040EA9A
:105130000E000860F0BD0000A0ED00E0BFF35F8F3F
:10514000044800210368034A23F48033036070326B
:105150001160704724ED00E0074A40F00100064965
:1051600070321060086840F480300860BFF34F8FE1
:10517000BFF36F8F7047000024ED00E0054808B5CD
:10518000016841F002010160006800F00200009037
:1051900008BD0000F4440258002809DB410900F072
:1051A0001F028900012001F1E0219040C1F80001B7
:1051B000704700000E4BF0B41B680D46C3F302238A
:1051C000C3F10706042E00D90426191D072901D2B0
:1051D000002300E0DB1E012404FA06F19C40491E76
:1051E0002940641E994014402143F0BC0AF090BA53
:1051F0000CED00E0064900F0070210B54FF6FF0481
:105200000868044B204040EA02201843086010BDA3
:105210000CED00E00000FA0501680123C0F8D83465
:10522000002280F8CC248869044A40F0006088613C
:10523000486D1043486500207047000003000010CF
:1052400070470068416200207047F0B503685D6AEE
:1052500039B19F6A4C1E00204FF4827605EB17454A
:105260000BE045EA0240986210E0471C06EB800024
:1052700053F800C0F8B205EB1C45A042F5D34FF43B
:10528000807000EB810045EA02421A500020F0BD18
:10529000D0F8E00409F0D4B801EBC10200EB8202BF
:1052A000D0F8E004126A08F0F5BF01EBC10200EB90
:1052B0008202D0F8E004D2F8602209F059B8D0F8A0
:1052C000E00409F0BFB80A0601F00F0101EBC101CB
:1052D00000EB810101D5143101E001F51571006881
:1052E0000AF01AB801F00F020B0670B502EBC2010A
:1052F00004464FF001004FF0000504EB810102D598
:105300004875143103E081F8555201F515710A70A2
:1053100094F89424012A08D084F89404206809F0B1
:1053200019FD002084F8945470BD022070BD70B542
:105330000279044601F00F00904201D9012070BDAE
:1053400001F00F024FF000050B0602EBC2014FF017
:10535000010204EB810102D54A75143103E081F8A2
:10536000555201F515718D70087094F89404012858
:1053700008D084F89424206809F056FE002084F8B0
:10538000945470BD022070BD01F00F0101EBC1010A
:1053900000EB8100D0F8680270472DE9F04101F080
:1053A0000F0604460D064FF0010006EBC6014FF054
:1053B000000504EB810102D54875143103E081F842
:1053C000555201F51571C2F30A024F780B718A60CC
:1053D0000E7007B14E83022B00D14D7194F89424C6
:1053E000012A09D084F89404206809F0FBFB2846C0
:1053F00084F89454BDE8F0810220FBE770B501F019
:105400000F05002405EBC50100EB810101F51871C2
:1054100081E81C0001F80B4C01F80C5D8379012B2D
:1054200000D1CA618279006809F056FE002070BD83
:1054300070B50D460179044605F00F00884201D988
:10544000012070BD29064FF000064FF0010206D57D
:1054500000EBC00104EB81014A75143107E005EB54
:10546000C50104EB810181F8556201F515718A705F
:10547000087094F89404012807D084F894242068D4
:1054800009F0FEFD280702D007E0022070BDA179D7
:1054900004F29C42206809F09BFD002084F894648B
:1054A00070BD70B501F00F04002504EBC4010126A6
:1054B00000EB8101203181E82C0001F80B6C01F830
:1054C0000C4D8379012B00D1CA618279006809F003
:1054D00003FE002070BD00002DE9FC5F0568044656
:1054E000284609F0B5FF00287ED1206809F0DCFFCE
:1054F000002879D0D5F80808C0F30D20C4F8D404EA
:10550000206809F0D1FF800704D52068416901F0C7
:1055100002014161206809F0C7FFC10604F29C4006
:10552000009035D52068816921F0100181612F6AD2
:1055300007F00F01C7F3434001EBC101022804EB60
:10554000810606F5157602D0062812D01BE047F634
:10555000F070074217D0C7F30A12F16817462846C1
:1055600009F0A6FF7169F068394471613844F06050
:1055700009E000990822284609F09AFF7069C7F3EC
:105580000A11084470612068816941F0100181614D
:10559000206809F089FF00034FF0080B4FF0000A64
:1055A0004FF001097CD52068002609F05CFF074612
:1055B00074E0F80770D02068F1B209F06DFF804602
:1055C000C00707D005EB4611C1F8089B31462046BD
:1055D00006F0F6F95FEA087024D505EB4611C1F82C
:1055E00008BBFA49206800E03EE2026C00EB46107E
:1055F00001928A42D0F8081B05D9090403D54FF45B
:105600000041C0F8081B204600F022FBEF4901983A
:10561000884207D9A079012804D120680121009A85
:1056200009F0D6FC5FEAC86004D505EB46111020EE
:10563000C1F8080B5FEA88701DD56869000605D5BA
:10564000D5F8040840F48061C5F8041806EBC600DC
:1056500004EB800090F8571200F51570012905D170
:1056600080F803A02046F1B200F004FA05EB4611E1
:105670000220C1F8080B5FEA886004D505EB4611EB
:105680002020C1F8080B5FEA884005D505EB4611DC
:105690004FF40050C1F8080B7F08761C002F88D10A
:1056A000206809F001FF40036ED5206809F0D4FEA0
:1056B0000026074666E0F80762D02068F1B209F0DC
:1056C000D9FE8046C00723D0D5F8342806F00F0C49
:1056D00005EB461309FA0CF08243C5F83428C3F8E9
:1056E0000899A07901280FD106EBC60004EB8000D1
:1056F000D0E907211144016236B9606A20B92068F7
:105700000121009A09F064FC2046F1B2FFF7C4FDC4
:105710005FEA087003D505EB4611C1F808B95FEAE6
:10572000C86004D505EB46111020C1F808095FEAEE
:10573000486004D505EB46114020C1F808095FEA2E
:10574000887016D53146284609F057FE06EBC6008C
:1057500004EB8000C17D1430012905D180F803A03D
:105760002046F1B200F082F905EB46110220C1F8A3
:1057700008095FEA086003D53146204606F086F93D
:105780007F08761C002F96D1206809F08DFE002836
:1057900011DAD5F8040820F00101C5F8041894F8CE
:1057A000CC0401283BD0204600F037FA206841693C
:1057B00001F000414161206809F076FE00050BD53B
:1057C000D5F80808C00702D0204600F069FA206822
:1057D000416901F400614161206809F065FE000142
:1057E0000AD52068416901F00061416194F8CC0458
:1057F000E0B1204600F054FA206809F055FEC004DC
:1058000072D5D5F8040820F00100C5F80408206816
:10581000102109F0F2FD00214FF67F322DE000212A
:10582000204684F8CCA4FFF70BFDBFE784F8CC94A6
:105830002068406D0121C0F38300C4F8D0042046E5
:10584000FFF7FEFCD8E700BF05EB4110C0F80829C0
:10585000D0F8003923F40013C0F80039C0F8082B41
:10586000D0F8003B23F40013C0F8003BD0F8003B15
:1058700043F00063C0F8003B491C20798842E3D81C
:10588000D5F81C0840F00111C5F81C18E07B68B180
:10589000D5F8840840F00B01C5F88418D5F8440801
:1058A00040F00B012846C5F844180DE0D5F814085F
:1058B00042F22B010843C5F81408D5F8100840F04F
:1058C0000B012846C5F81018D0F8000820F4FE6136
:1058D000C5F80018A1792068009A09F079FB2068C2
:1058E000416901F480514161206809F0DDFD8004C7
:1058F00016D5206809F0B6F9206809F09CFDE07122
:1059000001F07AFB23680146E279184609F030FE7F
:10591000204600F06BF92068416901F400514161B3
:10592000206809F0C1FD000707D5204600F079F98D
:105930002068416901F008014161206809F0B4FD67
:10594000000615D5A869012620F08001A9610CE0A8
:1059500006EBC60004EB800090F85702012803D143
:105960002046F1B2FFF7AFFC761C2079B042EFD8A9
:10597000206809F099FDC0021FD501264F4614E0AA
:1059800006EBC60005EB461304EB8001D3F80009D3
:105990000A7E012A08D1002806DAF0B2CF7540F05D
:1059A00080012046FFF78FFC761C2079B042E7D8B3
:1059B0002068416901F480114161206809F074FD9B
:1059C000800234D501204A4629E000000A30544FB5
:1059D00000EBC00305EB401604EB8301D6F8006B27
:1059E00091F85832012B19D1002E17DA94F8D434DB
:1059F000C6F3004603F00103B3420FD181F85722EA
:105A0000A96941F08003AB616969090606D4D5F83C
:105A1000040840F40070C5F8040803E0401C217934
:105A20008142D5D82068416901F4001141612068A4
:105A300009F03AFD400007D52046FFF729FC206811
:105A4000416901F080414161206809F02DFD400766
:105A50000AD520684568680702D52046FFF72FFC65
:105A60002068416829434160BDE8FC9FD0F8E0040C
:105A700008F03EBDD0F8E00408F04FBDF8B50400D2
:105A800004D094F89504002510B106E00120F8BD7B
:105A9000204684F8945400F057F8032084F89504C5
:105AA000206809F08FFA207C8DF8000094E80F0040
:105AB00009F0E6F80226B0BB2068002109F018FDC5
:105AC00088BB002001270CE000EBC001421C04EB66
:105AD00081014F750D76CD610D624D620875C885E7
