:020000040800F2
:10000000782600243903000897520008954C000810
:10001000955200084D0600086581000800000000A8
:10002000000000000000000000000000555600081D
:100030009D060008000000001354000857560008F1
:100040005703000857030008570300085703000828
:100050005703000857030008570300085703000818
:100060005703000857030008570300085703000808
:1000700057030008570300085703000857030008F8
:1000800057030008570300084106000857030008FB
:1000900057030008570300085703000857030008D8
:1000A00057030008570300085703000857030008C8
:1000B00057030008570300085703000857030008B8
:1000C00057030008570300085703000857030008A8
:1000D0005703000857030008570300085703000898
:1000E00057030008570300080000000057030008EA
:1000F0000D5800085703000857030008570300086D
:100100005703000857030008570300085703000867
:100110005703000857030008015800085703000858
:100120005703000857030008570300085703000847
:100130005703000857030008570300085703000837
:1001400000000000000000000000000000000000AF
:100150005703000857030008570300085703000817
:100160005703000857030008570300085703000807
:100170005703000857030008570300080000000059
:1001800057030008570300085703000857030008E7
:1001900057030008570300085703000857030008D7
:1001A00057030008570300085703000857030008C7
:1001B00057030008570300085703000857030008B7
:1001C00057030008570300085703000857030008A7
:1001D0005703000899520008570300085703000806
:1001E0005703000857030008570300085703000887
:1001F0005703000857030008570300085703000877
:100200005703000857030008570300085703000866
:100210005703000857030008570300085703000856
:1002200057030008570300085703000800000000A8
:100230005703000857030008000000005703000898
:100240005703000857030008570300085703000826
:100250005703000857030008570300085703000816
:100260005703000857030008570300085703000806
:100270005703000857030008570300080000000058
:100280005703000857030008570300080000000048
:10029000000000005703000800F002F800F03CF8EE
:1002A0000AA090E8000C82448344AAF10107DA45D1
:1002B00001D100F031F8AFF2090EBAE80F0013F0E7
:1002C000010F18BFFB1A43F001031847787F0000A5
:1002D000987F0000103A24BF78C878C1FAD8520736
:1002E00024BF30C830C144BF04680C6070470000B0
:1002F0000023002400250026103A28BF78C1FBD82F
:10030000520728BF30C148BF0B6070471FB507F0C8
:1003100078FF1FBD10B510BD00F0D3F81146FFF7F0
:10032000F5FF07F031FF00F0F1F803B4FFF7F2FF3B
:1003300003BC00F0F9F800000A4880470A488047EB
:100340000A480047FEE7FEE7FEE7FEE7FEE7FEE7B6
:10035000FEE7FEE7FEE7FEE705480649064A074BCB
:1003600070470000A5060008095700089902000818
:100370007820002478260024782200247822002483
:1003800053EA020C00F069802DE9F04B4FF00006B3
:10039000002B1FBFB3FA83F503FA05F424FA05F620
:1003A0005E4012BF1643B2FA82F502FA05F4C5F1B7
:1003B00020051EBF22FA05FC44EA0C04203556EA4B
:1003C000044C4FEA144418BF641C4FF000084FF06F
:1003D0000009904271EB030C39D3002919BFB1FA1F
:1003E00081F701FA07F6B0FA80F700FA07F6C7F1CD
:1003F00020071EBF20FA07FC46EA0C062037B6FB92
:10040000F4FCA7EB0507103F07F01F0BCBF120060C
:100410000CFA0BFB2CFA06F644BFB3460026202F3D
:10042000A4BF5E464FF0000B5BEA060C08BF4FF01E
:10043000010B19EB0B09ABFB027C48EB0608C01B58
:1004400006FB02CC0BFB03CC71EB0C01C1E70B46A6
:10045000024641464846BDE8F08B13B54FF0000018
:100460004FF00001AFF30080BDE81C4070474FF033
:10047000000200B5134694469646203922BFA0E8F4
:100480000C50A0E80C50B1F12001BFF4F7AF090700
:1004900028BFA0E80C5048BF0CC05DF804EB8900F1
:1004A00028BF40F8042B08BF704748BF20F8022B34
:1004B00011F0804F18BF00F8012B7047704770474C
:1004C0007047754600F02CF8AE4605006946534665
:1004D00020F00700854618B020B5FFF73DFFBDE8C6
:1004E00020404FF000064FF000074FF000084FF09B
:1004F000000B21F00701AC46ACE8C009ACE8C0092C
:10050000ACE8C009ACE8C0098D46704710B5044698
:10051000AFF300802046BDE81040FFF706BF0000A3
:10052000004870471420002401491820ABBEFEE7A4
:10053000260002007047000070B53A490546006881
:10054000884202D0384A904202D1D1F8080302E032
:100550003648D0F8080310F4403F11D003F056FAA3
:1005600004466868B0F5803F06D0B0F5003F03D080
:10057000B0F5403F27D101E0000C18E0A40822E0CC
:1005800000214FF4002002F0D9FA04466868810384
:10059000890B18D181140C2915D2DFE801F014065B
:1005A00006060606060B0D0F1113800C4000B4FB67
:1005B000F0F408E0240906E0640904E0A40902E07C
:1005C000E40900E0240A01F033FA41F20301884211
:1005D00008D8174884422868816813D821F48071AC
:1005E000816070BD13496008884204D8286881681A
:1005F00021F44071F4E71049884206D828688168E0
:1006000021F4407141F48071EAE70C49884228687E
:10061000816804D821F4407141F40071E0E741F4AD
:100620004071DDE7002002400021024000600258D6
:10063000002D3101105E5F0020BCBE0040787D01BE
:10064000014800F003BE00000C010024FEE704286E
:100650004FF00000704700207047000010B50549BA
:100660000022054806F048F80449034806F036F829
:10067000002010BD101100243404002410090024AF
:1006800010B50146034806F029F8024805F0F6FFC8
:10069000002010BD3404002400207047704772B65B
:1006A000FEE70000054805490839026842F00202E9
:1006B000026008688004FCD5704700000C480258AE
:1006C00070B50B480168001D0568001D00680844EE
:1006D00000280CD0074C0822A11C04F0DCFA04F11D
:1006E00012012846BDE87040042204F0D4BA70BD5F
:1006F00000E8F11F4C00002470B50446006804F0C7
:10070000FBFA0546206804F0EFFA054301D001200A
:1007100070BD2068034AC168114041F00041C160CA
:10072000002070BDFFFFDF7F704700002DE9F84F0C
:1007300004464FF0000BDFF8ECA30D46CDF800B0F7
:100740005F4690F850205846F74EE168012A0BD0DA
:10075000F64B4FF0010984F8509041B1296A012904
:1007600005D0226EF2B12AE00220BDE8F88F686859
:1007700009283CD1A96A4FF4785049B12A6801F0A0
:100780007C0CE96A00EA524040EA0C00084302E0AF
:10079000296800EA51402168CA6C1A400243CA64C1
:1007A000E06524E0C4E917B1A96A286A31B1EA6AB0
:1007B000401E01F07C010843104300E0401E296800
:1007C000226E95F804C0521E22660CF01F0CE26DDA
:1007D000C1F3846101FA0CF141EA000142EA01022D
:1007E000E26504D12068C16C19401143C1642068DE
:1007F00004F07AFAE8B9286800280DDB21680303C1
:10080000CA6921D090FAA0F0B0FA80F000F01F037E
:1008100009FA03F00243CA6195F8250095F82610FD
:100820000028206813D0C26822F4401242EA4151E5
:10083000C160206804F060FA8046206804F054FA31
:1008400058EA00000DD0F6E0C0F38460DEE795F8CA
:100850002420C368490541EA025123F440121143A0
:10086000E6E7A86A30B1E86A20B195F825000128CA
:1008700036D003E095F82500012804D02068C1682F
:1008800021F0007103E02068C16841F00071C1608F
:1008900095F83000012829D02068016921F0020173
:1008A00001612A68042320684FF0070CA96803EA55
:1008B000D25318444369C2F304520CFA02FC91402B
:1008C00023EA0C030B434361994909682068B9EB9B
:1008D000117F1BD16B69C068C0F3820040001DE02E
:1008E000606D012740F020006065D1E72168AB8E84
:1008F000904ADFF844C20869D5F838800CEB03430E
:100900001040184340EA08000861CAE7C168C0689F
:10091000C9066B69E0D500F01000400829698340E2
:10092000042914D02A68206804F0F2F9297F22688B
:100930002869012908D0002102EB8000026E22F014
:1009400000420A43026676E04FF00041F4E7206877
:10095000002104F0BFF9000320684FF0000172D0BD
:1009600004F0B8F990FAA0F0B0FA80F02A68110308
:100970006ED092FAA2F1B1FA81F1884204D100233B
:100980002068194604F0C4F92068012104F0A2F996
:10099000000320684FF001015DD004F09BF990FA4C
:1009A000A0F0B0FA80F02A68110359D092FAA2F1AF
:1009B000B1FA81F1884204D120680023012104F0BA
:1009C000A7F92068022104F085F9000320684FF0A0
:1009D000020148D004F07EF990FAA0F0B0FA80F05D
:1009E0002A68110344D092FAA2F1B1FA81F1884247
:1009F00004D120680023032104F08AF92068032130
:100A000004F068F9000320684FF0030133D004F0CC
:100A100061F990FAA0F0B0FA80F02A6811032FD0A3
:100A200092FAA2F1B1FA81F1884204D12068002340
:100A3000032104F06DF92068816811F0010F22D0C4
:100A4000E3E000E004E004F045F9C0F384608DE7E2
:100A5000C2F3846191E704F03DF9C0F38460A2E73A
:100A6000C2F38461A6E704F035F9C0F38460B7E708
:100A7000C2F38461BBE704F02DF9C0F38460CCE7D6
:100A8000C2F38461D0E750F8C02F2B7BDFF8ACC0F5
:100A9000296803F018032CFA03FCC1F3130822EAB7
:100AA00008020CEA010C42EA0C0202602448E968E0
:100AB00081426FD12348DFF890C02268DFF88CE0D4
:100AC0002449824222484FEA4C08134622D12A6820
:100AD000624524D042454BD0A2F1496CBCF1080CD0
:100AE00056D0A2F1865CBCF1100C54D072454DD0AA
:100AF000DFF864C062455DD0824254D08A4256D04D
:100B00001648824201D1164854E01648824250D11C
:100B100015484FE0B2424CD12A68624526D10120E7
:100B200048E000000060025800210240004010042C
:100B30000010005C1DFE00FC0200FFFFFFFF0F0025
:100B40000000FF4700200240020030042000F014A3
:100B50000008302E001060320004002A00002143FB
:100B6000000052470000844B0000B84F424501D1BD
:100B700053481FE0A2F1496CBCF1080C08D0A2F167
:100B8000865CBCF1100C06D0724506D14D4811E0D0
:100B90004D480FE01CE04D480CE0DFF834C16245E1
:100BA00008D0824201D1084604E08A42ADD14948CA
:100BB00000E00020D96902031BD090FAA0F0B0FA3F
:100BC00080F000BF00F01F0209FA02F00143D96172
:100BD0002D68002D19DA404B2068984201D0B042B0
:100BE00009D19968B26801F0010102F001021143D4
:100BF00005E0800EE6E7DAF8081001F0010141B1E6
:100C0000606D012740F020006065384684F850B0E0
:100C1000ABE5324A9842DFF8C8C001D0B04201D1FA
:100C2000114600E061468968DFF8B88001F0E071A4
:100C300045451DD15FEA01281AD45045E5D19842B7
:100C400002D0B04200D06246936841F4000023F025
:100C5000E07101439160254923480968B1FBF0F038
:100C60004000801C00E0401E00900028FBD1CCE733
:100C7000DFF87C8045450DD15FEAC1180AD45045A4
:100C8000C3D1984202D0B04200D06246936841F08E
:100C900080700FE0DFF85C804545B6D14D02B4D4DA
:100CA0005045B2D1984202D0B04200D0624693681B
:100CB00041F4800023F0E07101439160A5E700005A
:100CC000400020190002B0258000501D0001802145
:100CD0000004002A00209036002002400023024039
:100CE00000630258000084CB400D03000C00002478
:100CF000000052C70000B8CF704770477047704778
:100D00002DE9F0470F4690F850109AB0044601299B
:100D10004FF0000915D00026DFF8F880012084F894
:100D2000500015961696216841450ED13A4D009512
:100D3000284603F0E1FF8246206803F0DDFF60B142
:100D40000EE002201AB0BDE8F087606D84F85060B4
:100D500040F0200060650120F4E7BAF1000F09D0EF
:100D6000616D4FF0010941F020006065484684F84C
:100D70005060E7E720684146884201D0A84201D18F
:100D8000264800E0264840F61F72D7F800C0254BE1
:100D9000BCF1000F23D0D0F808C0D7F804802CF4A1
:100DA000404C4CEA080CC0F808C0D4F800C08C4590
:100DB00001D0AC4507D18968AB6801F0010103F0AF
:100DC0000103194302E0996801F001010029CDD126
:100DD000BD683968836829439343194317E08768DE
:100DE00027F44047876027688F4201D0AF4207D180
:100DF0008968AB6801F0010103F00103194302E0C7
:100E0000996801F001010029B0D1816891438160A6
:100E1000ACE7000000200240002102400023024015
:100E200000630258006002582DE9F84F0446EB4E6B
:100E30000020DFF8ACB30090002794F850000D4676
:100E4000DFF8A0A3012808D04FF0010984F85090E2
:100E5000206803F04DFF18B171E10220BDE8F88F62
:100E6000286800280EDB21680303CA6928D090FA9D
:100E7000A0F0B0FA80F000BF00F01F0309FA03F001
:100E80000243CA61D5E900124FF00C0C20681F2301
:100E9000C1F384610CEA921C02F01F02604493408B
:100EA0009140026B9A430A430263206803F020FFDB
:100EB0008046206803F014FF58EA000003D08DE05C
:100EC000C0F38460D8E72A68042320684FF0070C39
:100ED000A96803EAD25318444369C2F304520CFAD6
:100EE00002FC914023EA0C030B434361BE490968AD
:100EF000B9EB117F06D121686869C968C1F3820125
:100F0000490008E02068C168C906C1686869F5D56C
:100F100001F0100149088840296904292ED023686E
:100F20002A6803EB810102F0F8420B6E024303F0E2
:100F3000004010430866697E22682869012917D09D
:100F40005FF0000102EB8000026E22F000420A43D3
:100F50000266297E20682A6901290CD000210369D4
:100F600002F01F02914023F4F0420A43026135E08F
:100F70004FF00041E6E74FF40061F0E72068297880
:100F8000026E02F0F842B2EB816F03D1016E21F0E4
:100F90000041016620682978426E02F0F842B2EB07
:100FA000816F03D1416E21F00041416620682978AC
:100FB000826E02F0F842B2EB816F03D1816E21F0B4
:100FC0000041816620682978C26E02F0F842B2EBD7
:100FD000816F03D1C16E21F00041C1662068816834
:100FE00011F0010F72D150F8C03F2A7BDFF8FCC12D
:100FF000296802F018022CFA02FCC1F3130823EA54
:1010000008030CEA010C43EA0C030360E968594544
:101010006CD177482268DFF8DCC1DFF8DCB18242AE
:10102000DFF8D8E17648774BDFF8DC8122D12968F8
:10103000614524D0B1EB4C0C38D0A1F1496CBCF126
:10104000080C35D0A1F1865CBCF1100C32D0DFF871
:10105000BCC1614528D071453AD0814230D0994217
:1010600032D06B48814201D16A4831E041452ED1EE
:1010700069482DE0B2422AD12968614501D1012099
:1010800026E0A1F1066CBCF1040C0FD0A1F1496C73
:10109000BCF1080C0CD0A1F1865CBCF1100C09D09D
:1010A000DFF868C1614507D15C4811E058460FE0A0
:1010B0005B480DE05B480BE0714509D0814201D1EE
:1010C000184605E09942D1D1574801E03CE00020A4
:1010D000D16903031AD090FAA0F0B0FA80F000BFF3
:1010E00000F01F0309FA03F00143D161D5F800C0F5
:1010F000BCF1000F28DA3E4B20684C49DFF83091F4
:10110000984201D0B04203D10A4602E0800EE7E7E0
:101110004A469268984202F0E07201D0B04209D18A
:101120009D68D6F8088005F0010508F0010845EA39
:10113000080503E0DAF8085005F001054DB1606DCF
:10114000012740F020006065002084F850003846F8
:1011500084E6384DAC451CD115021AD45045F3D164
:10116000984202D0B04200D049468B6842F4000059
:1011700023F0E07202438A6030492F480968B1FBCE
:10118000F0F04000801C00E0401E00900028FBD1E1
:10119000DAE72B4DAC450CD1D5010AD45045D3D15B
:1011A000984202D0B04200D049468B6842F080702D
:1011B0000EE0244DAC45C7D15502C5D45045C3D12E
:1011C000984202D0B04200D049468B6842F4800079
:1011D00023F0E07202438A60B6E70000002102407B
:1011E0000000FF47006002580010005CFFFF0F0086
:1011F0000020024002003004400020190004002AB0
:101200000008302E001060320000844B2000F014E3
:1012100000002143000052470000B84F0002B025F3
:101220008000501D000180210020903600230240E4
:1012300000630258000084CB400D03000C00002422
:10124000000052C70000B8CF704770472DE9F05F2B
:101250000446006806684568DFF87082DFF870B2FF
:10126000DFF87092404501D0484501D1584600E072
:101270009948806800F01F07B0070ED5A8070CD565
:10128000606DC00603D4606D40F400606065204668
:10129000FFF74AFA216802200860700701D5680745
:1012A00003D4300737D5280735D5606DC00603D481
:1012B000606D40F400706065206803F021FD20B38C
:1012C0002068484501D1424600E00246824208D0EB
:1012D0003FB1052F05D0092F03D0484503D1414622
:1012E00002E0C16801E00146C96889040DD40168C3
:1012F00009070AD503F0FCFC58B3606D40F01000FC
:101300006065A06D40F00100A0652046FFF79CFFDE
:1013100021680C200860B00601D5A80603D4700629
:1013200058D5680656D5606DC00603D4606D40F48C
:10133000005060652068C16C11F4C07F1AD0002194
:101340008A4603F0DDFC02462068484514D1434636
:1013500013E02068416821F00C014160606D20F4C9
:1013600080706065606DC004CFD4606D40F0010096
:101370006065CAE70121E3E70346834208D03FB135
:10138000062F05D0072F03D0484503D1414602E080
:10139000C16801E00146C968BAF1000F14D08B01A1
:1013A00002D58AB18A040FD4026852060CD589028C
:1013B0000AD403F095FCE8B3606D40F0100060655E
:1013C000A06D40F00100A0652046FFF795FC216864
:1013D0006020086030060BD5280609D5606D40F402
:1013E00080306065204600F08DF92168802008601B
:1013F000F0050CD5E8050AD5606D40F40030606555
:101400002046FFF77BFC21684FF480700860B00530
:101410000CD5A8050AD5606D40F480206065204693
:10142000FFF76DFC21684FF400700860F00631D5BD
:10143000E80600E00AE02DD5206BE8B12068EFB3A4
:10144000404501D0484512D1584611E02068416816
:1014500021F060014160606D20F480506065606D36
:10146000C005B1D4606D40F001006065ACE71A487A
:10147000806800F4404050B1606D40F48060606569
:10148000A06D40F00200A0652046FFF7DEFE216857
:1014900010200860700517D5680515D5616D4FF4EB
:1014A000806041F480416165A16D41F00801A16552
:1014B000216808602046BDE8F05F00E001E0FFF72A
:1014C0001CBCC0688007D6E7BDE8F09F0020024042
:1014D000002302400021024000630258F8B54FF09B
:1014E000000604003546009602D0606D10B107E09A
:1014F0000120F8BD204600F007F9A66584F8506089
:1015000020688168C1F3407119B18168704A114047
:10151000816020688168C1F3007181B981686D4A7A
:10152000114041F0805181606C496B480968B1FB02
:10153000F0F0401C00E0401E00900028FBD1206825
:101540008168C1F3007141B9616D012541F010015D
:101550006165A16D41F00101A16503F0C9FB616DF9
:10156000C90600D420B1606D012540F0100093E061
:10157000606D20F4807040F0020060652068816832
:1015800011F0010F1FD1564A564B904201D098429C
:1015900007D191689E6801F0010106F00106314310
:1015A00003E05149896801F0010161B9904201D01D
:1015B000984201D14D4800E04D488268616822F4AC
:1015C0007C120A43826000F033FA41F20301884240
:1015D00002D9A06810280CD0617D227FA368206BFF
:1015E000490341EA024118430843217F01290CD0F5
:1015F00010E0607D227F216B400340EA024241F00F
:101600001000104340F00C00EFE7218C394A02EB48
:1016100041410843616A29B1A26A01F4787101432A
:1016200042EA01002168344BCA681A400243CA608A
:10163000206803F05DFB0646206803F051FB304351
:101640001DD1216844F20303267DE26AC86842EA9C
:10165000863298431043C86094F8380001281ED0A1
:101660002068016921F0010101612068626B016954
:1016700021F07041114301612046FEF75DFFE068F3
:10168000012820681CD0016B21F00F010163606DFF
:1016900020F0020040F0010060652846F8BD206897
:1016A000A28F164FD4E9101C154E07EB0247A36C0E
:1016B000026941EA0C013B43324019431143D3E72D
:1016C000A269016B521E21F00F011143DEE70000F9
:1016D000C0FFFF5FC0FFFF7F400D03000C00002430
:1016E0000020024000210240006002580023024016
:1016F000006302580000FEFF03C0F0FF0100FFFF7F
:101700001EF800FC70470000F0B5B7B00446142185
:1017100030A8FEF7ACFEC0216846FEF7A8FE2949B6
:10172000206888424CD10DF1080C032502200C23BF
:101730008CE829000022299220271446C02607960B
:10174000CDE90872CDE905504FF400216846CDE996
:10175000001201F057FB08B1FEF7A1FF1A4801681B
:1017600041F020010160006800F02000359016482B
:101770000830016841F001010160016801F00101D8
:101780003591016841F002010160006830A932948E
:1017900000F0020035900120CDE930050B4800F043
:1017A0002BF8309530A90A48CDE9315400F024F8DF
:1017B00000221220114600F007FA122000F0F6F97C
:1017C00037B0F0BD00200240D84402580000025853
:1017D0000004025870B5044600F030F90546601C5C
:1017E00002D004480078044400F028F9401BA042CD
:1017F000FAD370BD000000242DE9F84F03247D4D7D
:1018000000234FF001094FF0B04B4FF00F0AE9E011
:1018100009FA03F73A4076D00E7906F00306012E56
:1018200001D0022E18D1D0F808C04FEA430ECE687E
:1018300004FA0EF82CEA080C06FA0EF646EA0C0634
:101840008660D0F804C00E792CEA070CC6F30016A7
:101850009E4046EA0C0646600E79F643B6070BD06A
:10186000C6684FEA43088F6804FA08FC26EA0C06AB
:1018700007FA08F73743C7600E7906F00306022E11
:1018800012D1DE080F694FEA437C00EB8606B646AC
:10189000366A4FEADC6C0AFA0CF807FA0CF726EA0B
:1018A00008063743CEF820700F7906684FEA4308E0
:1018B00007F0030704FA08FC07FA08F726EA0C0603
:1018C000374307604E6816F4403F1CD04A4E3768D5
:1018D00047F00207376036689F0706F00206009659
:1018E00023F0030606F1B046B6463F0FD6F808646B
:1018F000DFF808810AFA07FC404526EA0C0603D106
:101900004FF0000C41E06CE0DFF8F4C0604502D11C
:101910004FF0010C39E0DFF8ECC0604502D14FF028
:10192000020C32E0DFF8E0C0604502D14FF0030C5A
:101930002BE0DFF8D8C0604502D14FF0040C24E062
:10194000DFF8CCC0604502D14FF0050C1DE0DFF898
:10195000C4C0604502D14FF0060C16E0DFF8B8C0F5
:10196000604502D14FF0070C0FE0DFF8B0C06045D2
:1019700002D14FF0080C08E0DFF8A4C0604502D1A6
:101980004FF0090C01E04FF00A0C0CFA07FC4CEA8E
:10199000060CCEF808C44F68DBF80060FF0226EAA8
:1019A000020600D516435F46CBF80060D1F804C0AC
:1019B000DBF804605FEA8C2C26EA020600D51643A9
:1019C0007E606E684F6826EA0206BF0300D51643A4
:1019D0006E602E684F6826EA0206FF0300D51643A4
:1019E0002E605B1C0A6832FA03F67FF411AFBDE883
:1019F000F88F000080000058F4440258000002589C
:101A00000004025800080258000C02580010025846
:101A10000014025800180258001C025800200258F6
:101A2000002402580AB1816170470904FBE70000F5
:101A300001480068000C70470010005C0148806895
:101A400070470000000000240248816802781144B9
:101A50008160704700000024032010B500F0D4F826
:101A600002F01AF80F4A104914681368C4F30322ED
:101A700003F00F038A5CC95C02F01F0201F01F0132
:101A8000D0400A4A20FA01F11160094908600F208C
:101A900000F010F808B1012010BD00F079F8002026
:101AA00010BD0000184402583482000810000024C1
:101AB0000C00002470B50D4D04462878A0B14FF4F9
:101AC0007A71B1FBF0F00A490968B1FBF0F002F05D
:101AD000B3FC48B9102C07D200222146501E00F05A
:101AE00073F800206C6070BD012070BD0000002400
:101AF0000C000024154BF0B5083B427813491A60DE
:101B00000B680A1F23F001030B6043681360057B19
:101B1000C67A827A437B2D07847B45EA0665C77BBC
:101B200090F809C0067A90F800E045EAC24040EA21
:101B3000834040EA444040EA074040EA0C2040EA43
:101B4000460040EA0E000860F0BD0000A0ED00E095
:101B5000BFF35F8F044800210368034A23F48033F6
:101B6000036070321160704724ED00E0074A40F0D6
:101B70000100064970321060086840F48030086047
:101B8000BFF34F8FBFF36F8F7047000024ED00E06D
:101B9000054808B5016841F002010160006800F0E5
:101BA0000200009008BD0000F4440258002809DB40
:101BB000410900F01F028900012001F1E02190405D
:101BC000C1F80001704700000E4BF0B41B680D46D1
:101BD000C3F30223C3F10706042E00D90426191DFE
:101BE000072901D2002300E0DB1E012404FA06F1DC
:101BF0009C40491E2940641E994014402143F0BC7A
:101C000006F0B1BA0CED00E0064900F0070210B58D
:101C10004FF6FF040868044B204040EA02201843B6
:101C2000086010BD0CED00E00000FA05016801231A
:101C3000C0F8D834002280F8CC248869044A40F0E7
:101C400000608861486D10434865002070470000BF
:101C50000300001070470068416200207047F0B533
:101C600003685D6A39B19F6A4C1E00204FF482768A
:101C700005EB17450BE045EA0240986210E0471C6F
:101C800006EB800053F800C0F8B205EB1C45A042FB
:101C9000F5D34FF4807000EB810045EA02421A5000
:101CA0000020F0BDD0F8E00405F03CB901EBC10222
:101CB00000EB8202D0F8E004126A05F05DB801EB97
:101CC000C10200EB8202D0F8E004D2F8602205F0F5
:101CD000C1B8D0F8E00405F027B90A0601F00F01F9
:101CE00001EBC10100EB810101D5143101E001F5E7
:101CF0001571006806F082B801F00F020B0670B58E
:101D000002EBC20104464FF001004FF0000504EB66
:101D1000810102D54875143103E081F8555201F56F
:101D200015710A7094F89424012A08D084F8940458
:101D3000206805F081FD002084F8945470BD0220D5
:101D400070BD70B50279044601F00F00904201D9D0
:101D5000012070BD01F00F024FF000050B0602EBF1
:101D6000C2014FF0010204EB810102D54A75143122
:101D700003E081F8555201F515718D70087094F8E3
:101D80009404012808D084F89424206805F0BEFE4D
:101D9000002084F8945470BD022070BD01F00F0142
:101DA00001EBC10100EB8100D0F8680270472DE91A
:101DB000F04101F00F0604460D064FF0010006EB5E
:101DC000C6014FF0000504EB810102D548751431BE
:101DD00003E081F8555201F51571C2F30A024F78FC
:101DE0000B718A600E7007B14E83022B00D14D71CA
:101DF00094F89424012A09D084F89404206805F00A
:101E000063FC284684F89454BDE8F0810220FBE787
:101E100070B501F00F05002405EBC50100EB810151
:101E200001F5187181E81C0001F80B4C01F80C5DFC
:101E30008379012B00D1CA618279006805F0BEFE6A
:101E4000002070BD70B50D460179044605F00F0005
:101E5000884201D9012070BD29064FF000064FF0DD
:101E6000010206D500EBC00104EB81014A75143173
:101E700007E005EBC50104EB810181F8556201F52E
:101E800015718A70087094F89404012807D084F8BA
:101E90009424206805F066FE280702D007E002209F
:101EA00070BDA17904F29C42206805F003FE002079
:101EB00084F8946470BD70B501F00F04002504EB44
:101EC000C401012600EB8101203181E82C0001F8DA
:101ED0000B6C01F80C4D8379012B00D1CA6182791A
:101EE000006805F06BFE002070BD00002DE9FC5F6E
:101EF00005680446284606F01DF800287ED12068B3
:101F000006F044F8002879D0D5F80808C0F30D2071
:101F1000C4F8D404206806F039F8800704D5206896
:101F2000416901F002014161206806F02FF8C10605
:101F300004F29C40009035D52068816921F01001A1
:101F400081612F6A07F00F01C7F3434001EBC10124
:101F5000022804EB810606F5157602D0062812D079
:101F60001BE047F6F070074217D0C7F30A12F1687A
:101F70001746284606F00EF87169F0683944716119
:101F80003844F06009E000990822284606F002F87B
:101F90007069C7F30A11084470612068816941F0D3
:101FA00010018161206805F0F1FF00034FF0080B7C
:101FB0004FF0000A4FF001097CD52068002605F09B
:101FC000C4FF074674E0F80770D02068F1B205F04E
:101FD000D5FF8046C00707D005EB4611C1F8089B26
:101FE0003146204603F05EF95FEA087024D505EB20
:101FF0004611C1F808BBFA49206800E03EE2026CD5
:1020000000EB461001928A42D0F8081B05D909045A
:1020100003D54FF40041C0F8081B204600F022FB16
:10202000EF490198884207D9A079012804D1206896
:102030000121009A05F03EFD5FEAC86004D505EB7A
:1020400046111020C1F8080B5FEA88701DD5686939
:10205000000605D5D5F8040840F48061C5F80418D9
:1020600006EBC60004EB800090F8571200F51570DF
:10207000012905D180F803A02046F1B200F004FA4E
:1020800005EB46110220C1F8080B5FEA886004D511
:1020900005EB46112020C1F8080B5FEA884005D502
:1020A00005EB46114FF40050C1F8080B7F08761C71
:1020B000002F88D1206805F069FF40036ED52068A5
:1020C00005F03CFF0026074666E0F80762D020686E
:1020D000F1B205F041FF8046C00723D0D5F834287F
:1020E00006F00F0C05EB461309FA0CF08243C5F815
:1020F0003428C3F80899A07901280FD106EBC6004F
:1021000004EB8000D0E907211144016236B9606A0E
:1021100020B920680121009A05F0CCFC2046F1B2DC
:10212000FFF7C4FD5FEA087003D505EB4611C1F85F
:1021300008B95FEAC86004D505EB46111020C1F864
:1021400008095FEA486004D505EB46114020C1F854
:1021500008095FEA887016D53146284605F0BFFEAB
:1021600006EBC60004EB8000C17D1430012905D1C7
:1021700080F803A02046F1B200F082F905EB461189
:102180000220C1F808095FEA086003D531462046FD
:1021900003F0EEF87F08761C002F96D1206805F03A
:1021A000F5FE002811DAD5F8040820F00101C5F881
:1021B000041894F8CC0401283BD0204600F037FAEC
:1021C0002068416901F000414161206805F0DEFEB0
:1021D00000050BD5D5F80808C00702D0204600F04E
:1021E00069FA2068416901F400614161206805F0E5
:1021F000CDFE00010AD52068416901F0006141610E
:1022000094F8CC04E0B1204600F054FA206805F0C0
:10221000BDFEC00472D5D5F8040820F00100C5F851
:1022200004082068102105F05AFE00214FF67F3285
:102230002DE00021204684F8CCA4FFF70BFDBFE77A
:1022400084F8CC942068406D0121C0F38300C4F869
:10225000D0042046FFF7FEFCD8E700BF05EB411095
:10226000C0F80829D0F8003923F40013C0F8003969
:10227000C0F8082BD0F8003B23F40013C0F8003B53
:10228000D0F8003B43F00063C0F8003B491C2079C4
:102290008842E3D8D5F81C0840F00111C5F81C1895
:1022A000E07B68B1D5F8840840F00B01C5F88418CC
:1022B000D5F8440840F00B012846C5F844180DE055
:1022C000D5F8140842F22B010843C5F81408D5F8D4
:1022D000100840F00B012846C5F81018D0F8000887
:1022E00020F4FE61C5F80018A1792068009A05F075
:1022F000E1FB2068416901F480514161206805F0EB
:1023000045FE800416D5206805F01EFA206805F009
:1023100004FEE07101F07AFB23680146E279184679
:1023200005F098FE204600F06BF92068416901F441
:1023300000514161206805F029FE000707D52046BD
:1023400000F079F92068416901F0080141612068D5
:1023500005F01CFE000615D5A869012620F08001B5
:10236000A9610CE006EBC60004EB800090F8570270
:10237000012803D12046F1B2FFF7AFFC761C20798B
:10238000B042EFD8206805F001FEC0021FD501263B
:102390004F4614E006EBC60005EB461304EB800144
:1023A000D3F800090A7E012A08D1002806DAF0B223
:1023B000CF7540F080012046FFF78FFC761C207916
:1023C000B042E7D82068416901F48011416120687A
:1023D00005F0DCFD800234D501204A4629E00000EA
:1023E0000A30544F00EBC00305EB401604EB8301A9
:1023F000D6F8006B91F85832012B19D1002E17DA5C
:1024000094F8D434C6F3004603F00103B3420FD16D
:1024100081F85722A96941F08003AB616969090617
:1024200006D4D5F8040840F40070C5F8040803E0A9
:10243000401C21798142D5D82068416901F40011FE
:102440004161206805F0A2FD400007D52046FFF756
:1024500029FC2068416901F080414161206805F054
:1024600095FD40070AD520684568680702D52046D3
:10247000FFF72FFC2068416829434160BDE8FC9FBD
:10248000D0F8E00404F0A6BDD0F8E00404F0B7BD35
:10249000F8B5040004D094F89504002510B106E0C6
:1024A0000120F8BD204684F8945400F057F803202A
:1024B00084F89504206805F0F7FA207C8DF8000078
:1024C00094E80F0005F04EF90226B0BB2068002109
:1024D00005F080FD88BB002001270CE000EBC00167
:1024E000421C04EB81014F750D76CD610D624D628A
:1024F0000875C885D0B221798142EFD8002011E05B
:1025000000EBC001421C04EB810181F8555281F8B7
:102510005852C1F85C52C1F86052C1F8645281F857
:102520005402D0B221798142EAD8207C8DF8000093
:1025300094E80F0005F002FA10B184F89564AFE753
:10254000207B657484F89574012802D12046FFF73A
:102550006DFB206805F0E4F90020F8BD30B5B7B098
:102560000546002432943394349435943694C02133
:1025700002A8FDF77CFF2868A0F18041B1F5002199
:1025800036D1002003904FF4802102914FF4401087
:10259000249002A800F036FC08B1FEF780F800F0A5
:1025A000CBF81448016841F001010160006800F0B7
:1025B000010001904FF4C0503290022033903494C7
:1025C00035940A20369032A90B48FFF715F90B48CD
:1025D000016841F000610160006800F00060019056
:1025E000002204216520FFF7EFFA6520FFF7DEFAED
:1025F00037B030BDE044025800000258D8440258B9
:1026000070B504460125E07900280ED0022801D0DB
:10261000FEF745F8D4F8E004294604F061FDD4F84B
:10262000E004BDE8704004F014BD0025F2E7D0F8E6
:10263000E00404F03EBDD0F8E00404F044BD10B561
:10264000044690F8940401280AD00120617484F8AB
:102650009404206805F0EDFC002084F8940410BD7B
:10266000022010BDD0F8E02400F29C41104604F096
:1026700043BD10B590F8941404460068012909D0B0
:10268000012184F89414C168490609D5617B0129A8
:1026900002D005E0022010BD816B41F480318163DE
:1026A000206805F0FAFB206805F02CF9002084F87A
:1026B000940410BD10B50446D4F8E00404F060FDA5
:1026C0002068D0F8001E41F00101C0F8001EE07A39
:1026D000002804D00248016841F00601016010BDE5
:1026E00010ED00E0134970B50A68D243520705D5D2
:1026F000096801F00701814213D118E00A6822F04D
:10270000070202430A60FFF799F90A4D4FF47A76FF
:102710000446083D07E000BFFFF790F9001BB042F8
:1027200001D9012070BD2868C0438004F4D4002082
:1027300070BD00000C4802580248016841F08071E9
:10274000016070470C48025810B501F05FF9054967
:102750000968054AC1F30211515C01F01F01C8402C
:1027600010BD000020440258348200084A4930B5A8
:10277000494C0B1D0A680C3409681D68246802F076
:10278000030305F00102C1F30511C4F3CC040029D1
:1027900014FB02F200EE102AF8EE400A76D0414A0D
:1027A0009FED3E1ADFED3E1AB7EE000A23B1012B72
:1027B0005AD0022B18D15CE0374C283C23689B068A
:1027C00012D5394B246801EE901A1168C4F3C10484
:1027D000F8EE612AE34001EE903AC1F30801F8EE09
:1027E000611A81EEA22A07E002EE101A1168F8EED3
:1027F000422A81EEA22A45E001EE901A1168F8EE15
:10280000611A40EE811A71EE800A62EE200AC1F36D
:10281000462101EE101AB8EE411A31EE001AC0EE50
:10282000811ABCEEE11A80ED001A1168C1F306416D
:1028300001EE101AB8EE411A31EE001AC0EE811AFC
:10284000BCEEE11A80ED011A1168C1F3066101EED8
:10285000101AB8EE411A31EE000A80EE801ABCEE72
:10286000C10A80ED020A30BD01EE901ADFED0F2A99
:1028700003E001EE901ADFED0E2A1168F8EE611AFE
:1028800082EEA12AC1F30801B6E7FFE7002101604B
:102890004160816030BD00002844025800000039CA
:1028A0000024744C304402580090D0030024744A31
:1028B00020BCBE4B494930B5484C0B1D0A68143446
:1028C00009681D68246802F00303C5F30012C1F310
:1028D0000531C4F3CC04002914FB02F200EE102AE7
:1028E000F8EE400A75D03F4A9FED3D1AB7EE000A58
:1028F0006BB1DFED3D1A012B01D0022B64D002EE4B
:10290000101A1168F8EE422A81EEA22A21E0334C17
:10291000283C23689B0612D5344B246801EE901A9C
:102920001168C4F3C104F8EE612AE34001EE903A65
:10293000C1F30801F8EE611A81EEA22A0BE001EE64
:10294000901ADFED2B2A00BFF8EE611A116882EEB3
:10295000A12AC1F3080101EE901A1168F8EE611A7C
:1029600040EE811A71EE800A62EE200AC1F3462120
:1029700001EE101AB8EE411A31EE001AC0EE811ABB
:10298000BCEEE11A80ED001A1168C1F3064101EEB8
:10299000101AB8EE411A31EE001AC0EE811ABCEEE0
:1029A000E11A80ED011A1168C1F3066101EE101AF7
:1029B000B8EE411A31EE000A80EE801ABCEEC10A70
:1029C00080ED020A30BD04E001EE901ADFED092A25
:1029D000BAE70021016041608160F3E728440258B2
:1029E00000000039384402580024744A0090D00393
:1029F0000024744C20BCBE4B494930B5484C0B1DDB
:102A00000A681C3409681D68246802F00303C5F3D2
:102A10000022C1F30551C4F3CC04002914FB02F2D7
:102A200000EE102AF8EE400A75D03F4A9FED3D1A9D
:102A3000B7EE000A6BB1DFED3D1A012B01D0022B7E
:102A400064D002EE101A1168F8EE422A81EEA22A32
:102A500021E0334C283C23689B0612D5344B246874
:102A600001EE901A1168C4F3C104F8EE612AE34044
:102A700001EE903AC1F30801F8EE611A81EEA22A44
:102A80000BE001EE901ADFED2B2A00BFF8EE611A81
:102A9000116882EEA12AC1F3080101EE901A1168B3
:102AA000F8EE611A40EE811A71EE800A62EE200A99
:102AB000C1F3462101EE101AB8EE411A31EE001AA8
:102AC000C0EE811ABCEEE11A80ED001A1168C1F364
:102AD000064101EE101AB8EE411A31EE001AC0EEAE
:102AE000811ABCEEE11A80ED011A1168C1F306618A
:102AF00001EE101AB8EE411A31EE000A80EE801A8B
:102B0000BCEEC10A80ED020A30BD04E001EE901A6D
:102B1000DFED092ABAE70021016041608160F3E737
:102B20002844025800000039404402580024744AE6
:102B30000090D0030024744C20BCBE4B2DE9F04F14
:102B4000AC4A0546DFF8A8A280F48070DFF8AC92AA
:102B500089B01311AA4C0843A748AAF104064FF004
:102B6000805C4FF000582CD085F400770F4357D08D
:102B7000DFF87CB285F480670F430BF1080B61D05E
:102B800085F400670F4374D085F480570F436ED0EF
:102B900085F400570F434FF480394FF4003E67D05F
:102BA00085F400270F4371D085F480370F436ED032
:102BB00085F480460E436BD085F400420A4368D00A
:102BC0002AE0DAF8001001F00701052924D2DFE835
:102BD00001F075BC7D25B10006A8FFF7C7FD079879
:102BE00009B0BDE8F08F6846FFF764FE0098F7E78C
:102BF00003A8FFF701FF0398F2E72068C0F3C100C4
:102C000022FA00F0ECE72268D20571D561456FD158
:102C10001846E5E74145E3D00020E1E74846DFE715
:102C2000DAF8001001F4E07180294FD004DC0029AB
:102C300044D04029F0D188E0C029EFD0B1F5807FA1
:102C4000EAD177E0DBF8001001F46001B1F5800F04
:102C50003CD004DC91B3B1F5001FDDD175E0B1F5D6
:102C6000C00FDBD0B1F5000FD6D163E001E018E072
:102C700030E0DBF8001001F0E061B1F1007F25D019
:102C800008DCD9B1B1F1807FC6D15EE049E06CE0EB
:102C900079E09CE0B1F1407FC0D0B1F1806FBBD151
:102CA00048E0DAF8001001F4E041B1F5005F0DD022
:102CB00005DC19B1B1F5805FAED146E094E0B1F525
:102CC000405FABD0B1F5804FA6D133E020688000E3
:102CD000A2D58DE7DAF8001001F4E021B1F5403F0C
:102CE0006CD006DC61B149457AD0714594D157E08A
:102CF00037E0B1F5802F65D0B1F5A02F8CD10CE075
:102D000000F0A6FE6CE76846FFF7D4FD019867E780
:102D100003A8FFF771FE049862E721688903F1D4E4
:102D20007AE7DBF8001011F440310ED0494510D09D
:102D30007145F5D13168256801F040516D077FF587
:102D400062AF00297FF45FAF57E720680001E7D545
:102D500049E720688000E3D503A8FFF74DFE0598FA
:102D60003EE722689203DBD554E7306810F48030E8
:102D70003AD04845D4D120680001D1D56846FFF744
:102D800099FD02982CE7DBF8001001F0E041B1F169
:102D9000405F13D008DC71B1614521D04145BFD1FE
:102DA00020688000B4D437E7B1F1804F0AD0B1F188
:102DB000A04FB2D030E7FFF7C7FC11E7206840070B
:102DC000AED51AE72068C005AAD521E708E0DAF8F1
:102DD000001011F04051A0D0614505D041459FD170
:102DE000206800018FD417E72068800198D5F3E6AA
:102DF000504402580090D00340787D010080BB0011
:102E0000004402582DE9FE4F0546DFF8E48350F8F0
:102E1000081B0024F64FC943019005F128002646FF
:102E200008F12408009008011DD4A86E50B1B0F537
:102E3000801F0CD0B0F5001F0ED0B0F5401F1ED083
:102E400001240FE0386840F40030386017E0019842
:102E5000022102F0DFFA03E00098022102F06AFB8F
:102E600004000CD026462888C043C00523D4A86D92
:102E700005281ED2DFE800F00C11161B1B00AA6EFD
:102E8000D8F8001021F440111143C8F80010EAE707
:102E9000386840F40030386009E00198002102F001
:102EA000B9FA03E00098002102F044FB044674B133
:102EB00000E0012426462888C043800528D4E86D18
:102EC00080281ED00CDC90B140280ED114E0AA6DF1
:102ED000D8F8001021F007011143C8F80010EAE704
:102EE000C02813D0B0F5807F10D001240FE03868DF
:102EF00040F40030386009E00198002102F08AFABD
:102F000003E00098002102F015FB04469CB1264620
:102F10002888DFF8DC92C04309F12C0940052CD445
:102F2000D5F8A800B0F5800F20D00DDCA0B1B0F529
:102F3000001F0FD115E0EA6DD8F8001021F4E07100
:102F40001143C8F80010E3E7B0F5C00F13D0B0F597
:102F5000000F10D001240FE0386840F400303860D2
:102F600009E00198002102F055FA03E000980021E1
:102F700002F0E0FA04467CB126462888C0430005EA
:102F80002DD4D5F8AC00B0F1007F21D00EDCA8B173
:102F9000B0F1807F10D116E0D5F8A820D9F8001044
:102FA00021F460011143C9F80010E6E7B0F1407F59
:102FB00013D0B0F1806F10D001240FE0386840F4D6
:102FC0000030386009E00198002102F023FA03E0A4
:102FD0000098002102F0AEFA044674B12646286833
:102FE000C04380011FD4E86CD8B110280FD020282E
:102FF00012D0302815D0012414E0D5F8AC20D9F82F
:10300000001021F0E0611143C9F80010E7E73868CB
:1030100040F40030386004E00198022102F0FAF92F
:10302000044674B126462888C043C0042BD4286EB9
:10303000B0F5005F20D00DDCA0B1B0F5805F0FD1FE
:1030400015E06B48EA6C2030016821F03001114333
:103050000160E8E7B0F5405F13D0B0F5804F10D0C5
:1030600001240FE0386840F40030386009E001982E
:10307000002102F0CFF903E00098002102F05AFA93
:1030800004468CB126462888C043800429D4686E43
:10309000B0F5403F23D010DC08B3B0F5803F14D02A
:1030A000B0F5003F0FD115E02A6ED8F8001021F4DA
:1030B000E0411143C8F80010E5E7B0F5802F0ED0CD
:1030C000B0F5A02F0BD001240AE00198012102F0F5
:1030D000A1F903E00098012102F02CFA044694B112
:1030E00026462888C04340042AD4D5F8B000B0F161
:1030F000405F23D010DC08B3B0F1805F14D0B0F192
:10310000005F0FD115E06A6ED8F8001021F4E021BD
:103110001143C8F80010E4E7B0F1804F0ED0B0F1D1
:10312000A04F0BD001240AE00198012102F072F9AE
:1031300003E00098012102F0FDF9044674B126462F
:103140002888C04300041FD4286FD8B1B0F1805F35
:103150000ED0B0F1005F10D0012414E0D5F8B020FB
:10316000D9F8001021F0E0411143C9F80010E7E759
:10317000386840F40030386004E00198012102F022
:1031800049F9044674B126462868C043C0011ED4DC
:10319000A86CD0B101280ED0022811D0032814D079
:1031A000012413E02A6FD8F8001021F04051114398
:1031B000C8F80010E8E7386840F40030386004E0F0
:1031C0000198022102F026F90446ACB1264628688F
:1031D000DFF81CB0C043ABF11C0B400252D40548D1
:1031E000016841F480710160FEF728FC824611E01D
:1031F0002C44025800480258FA48AA6C016821F091
:10320000030111430160E2E7FEF718FCA0EB0A009E
:10321000642835D8F4480068C005F5D58CBBDFF8C4
:10322000C4A3B5F8B4100AF1240ADAF8000001F4D6
:10323000407100F44070884211D0DAF80010DAF8DA
:10324000002021F4407142F48032CAF80020DAF8FC
:10325000002022F48032CAF80020CAF80010D5F805
:10326000B400B0F5807F1AD1FEF7E8FB029012E0BF
:10327000FEF7E4FB0299411A41F2883081420AD9F3
:10328000032426462878DFF85CA3C0430AF1080A25
:10329000C00721D03CE0DAF800008007E8D5D5F877
:1032A000B410C1F30120032858460DD0016821F461
:1032B0007C510160B5F8B420DAF80010C2F30B02BB
:1032C0001143CAF80010DDE7C84A036802EA111288
:1032D00023F47C511143ECE7E86F182816D005DC85
:1032E000A0B1082808D0102804D10AE020280DD069
:1032F00028280BD001240AE00198012102F08AF865
:1033000003E00098012102F015F9044664B1264655
:103310002878C04380071ED4A86F062819D2DFE89A
:1033200000F0160C11161616EA6FDAF8001021F0EC
:1033300038011143CAF80010EAE70198012102F0B0
:1033400069F803E00098012102F0F4F804467CB12A
:1033500000E0012426462878C04340071FD4D5F852
:103360009400062819D2DFE800F0160C1116161684
:10337000AA6FDAF8001021F007011143CAF8001013
:10338000E9E70198012102F045F803E000980121E6
:1033900002F0D0F80446A4B100E0012426462878C3
:1033A000C04380062BD4D5F89000B0F1405F24D004
:1033B00011DC10B3B0F1805F15D0B0F1005F10D117
:1033C00016E0D5F89420D9F8001021F00701114338
:1033D000C9F80010E3E7B0F1804F0ED0B0F1A04F74
:1033E0000BD001240AE00198002102F013F803E059
:1033F0000098022102F09EF8044694B126462878EF
:10340000C04340062BD4D5F89C00B0F5406F24D0C3
:1034100011DC10B3B0F5806F15D0B0F5006F10D18E
:1034200016E0D5F89020DAF8001021F0E0411143C1
:10343000CAF80010E3E7B0F5805F0ED0B0F5A05FEA
:103440000BD001240AE00198002101F0E3FF03E022
:103450000098022102F06EF8044694B126462878BE
:10346000C04300062BD4D5F8A000B0F5C04F24D03F
:1034700011DC10B3B0F5005F15D0B0F5804F10D15E
:1034800016E0D5F89C20D9F8001021F4E051114342
:10349000C9F80010E3E7B0F5004F0ED0B0F5204FAB
:1034A0000BD001240AE00198002101F0B3FF03E0F2
:1034B0000098022102F03EF8044654B126462878CE
:1034C000C04300071ED4D5F88400B0F5805F0AD051
:1034D0000FE0D5F8A020D9F8001021F46041114385
:1034E000C9F80010EBE70098022102F023F800B1C0
:1034F0000126D5F88420DAF8001021F44051114358
:10350000CAF800102878C043C00613D4D5F8980034
:10351000B0F5807F05D10098022102F00BF800B1D0
:103520000126D5F89820D9F8001021F440711143F4
:10353000C9F800102868C043000316D4D5F8A400C9
:1035400038B1B0F5803F09D0B0F5003F0BD0012471
:103550000AE00198002101F05DFF03E000980221DC
:1035600001F0E8FF04468CB126462868C0434003BA
:1035700022D4D5F88800B0F5801F11D0B0F5001F17
:1035800013D0B0F5401F15D0012414E0D5F8A420C5
:10359000D9F8001021F440311143C9F80010E4E7D4
:1035A000386840F40030386004E00098012101F0F0
:1035B000C1FF04465CB126462868C043C00323D43B
:1035C000286DA8B1B0F5803F17D001241BE0D5F8D5
:1035D0008820DAF8001021F440111143CAF80010D5
:1035E000EAE700004C44025800480258CFFFFF00B1
:1035F000386840F40030386004E00198022101F09E
:1036000009FF0446E4B126462868C043800005D47B
:103610000098022101F08EFF00B101262868C04306
:1036200080031BD4D5F88000B0B1B0F5807F0FD0F7
:10363000B0F5007F10D0B0F5407F0DD001240CE034
:103640005A482A6D016821F4803111430160DBE79B
:10365000386840F400303860ECB326462868C04330
:10366000C00207D46A6FD8F8001021F0004111435E
:10367000C8F800102868C043C00008D4D5F8B820A6
:10368000DBF8001021F480411143CBF800102868CA
:10369000C043800207D4EA6ED8F8001021F0807190
:1036A0001143C8F800102868C04340000CD4DBF870
:1036B000001021F40041CBF80010DBF80010D5F821
:1036C000BC201143CBF800102868C04308D4374809
:1036D0006A6D016800E018E021F04051114301607B
:1036E0002868C043000208D4D5F88C20DAF800100E
:1036F00021F440011143CAF8001028790024C04386
:1037000000F0010020430AD00FE0D5F88020DAF85D
:10371000001021F440711143CAF800109EE701988F
:10372000002101F077FE00B106462879C04300F081
:103730000200204305D10198012101F06BFE00B188
:1037400006462879C04300F00400204305D10198C3
:10375000022101F05FFE00B106462879C04300F067
:103760000800204305D10098002101F0E3FE00B1DC
:1037700006462879C04300F01000204305D1009888
:10378000012101F0D7FE00B106462879C04300F0C0
:103790002000044304D10098022101F0CBFE00B9BF
:1037A00016B10120BDE8FE8F0020FBE74C44025813
:1037B0002DE9F05F04000F467ED0DFF83882D8F89C
:1037C000000000F00F00B8420CD2D8F8001021F031
:1037D0000F013943C8F80010D8F8000000F00F00BE
:1037E000B84269D12078844D40070AD520692968FC
:1037F00001F07001884204D9296821F07001014369
:10380000296020787C4E361D00070AD56069316832
:1038100001F07001884204D9316821F07001014340
:1038200031602078C0060AD5A069316801F4E061F2
:10383000884204D9316821F4E06101433160207885
:10384000DFF8B4B180060BF1080B0CD5E1695846DE
:10385000DBF8002002F07002914204D9026822F0E5
:1038600070020A430260207880070AD5E068296860
:1038700001F00F01884204D9296821F00F010143AA
:1038800029602078C0073ED05B49A26828681839B3
:1038900020F47060104328606068022818D0032864
:1038A00019D00968012819D0490700294ADADFF838
:1038B00048A1AAF1080A00E044E0DAF8002022F06A
:1038C00007020243CAF80020FEF7B8F8814612E06A
:1038D00009688903E9E709688901E6E7C905E4E7BA
:1038E000FEF7ACF8A0EB090141F28830814202D921
:1038F0000320BDE8F09F6168DAF8000000F03800AE
:10390000B0EBC10FECD1207880070AD5E0682968B8
:1039100001F00F01884204D2296821F00F01014310
:103920002960D8F80010404601F00F01B9420BD9C8
:10393000016821F00F0139430160006800F00F00B9
:10394000B84201D00120D4E7207840070AD5206989
:10395000296801F07001884204D2296821F07001C1
:1039600001432960207800070AD56069316801F0B9
:103970007001884204D2316821F070010143316046
:103980002078C0060AD5A069316801F4E061884258
:1039900004D2316821F4E06101433160207880066F
:1039A0000CD5E1695846DBF8002002F07002914224
:1039B00004D2026822F070020A43026000F06CF840
:1039C0000E492A682B68C2F3032203F00F038A5CB6
:1039D000C95C02F01F0201F01F01D040084A20FA22
:1039E00001F111600749086007480068BDE8F05F11
:1039F000FEF760B8002000521844025834820008D4
:103A0000100000240C0000240400002430B500F055
:103A100043F80B4A0B490C4B15681468C5F3032295
:103A200004F00F048A5C095D02F01F0201F01F011F
:103A3000D040064A20FA01F119601060084630BDF6
:103A40001844025834820008100000240C0000249E
:103A500000B5FFF7DBFF05490968054AC1F302110C
:103A6000515C01F01F01C84000BD00001C44025819
:103A70003482000800B5FFF7C9FF05490968054A07
:103A8000C1F30221515C01F01F01C84000BD0000DC
:103A90001C44025834820008454970B545480968FD
:103AA000434B103B11F0380208D00111082A03D013
:103AB000102A0BD0182A0BD0084670BD1968890649
:103AC000FBD51968C1F3C101C84070BD3A4870BD4B
:103AD0003749374D18310C1D24350A6809682668A6
:103AE0002D6802F0030406F00102C1F30511C5F3CD
:103AF000CC0515FB02F200EE102AB8EE400AE9B33D
:103B00002F4ADFED2E0AB7EE001A6CB1DFED2D1A49
:103B1000012C01D0022C43D002EE101A1068F8EEEE
:103B2000422A81EEA22A1EE01C68A40611D51B6859
:103B300001EE901A1168C3F3C103F8EE612AD84070
:103B400001EE900AC1F30800F8EE611A81EEA22A94
:103B50000BE001EE901ADFED1C2A00BFF8EE611AAF
:103B6000106882EEA12AC0F3080001EE900AF8EE78
:103B7000611A40EE201A31EE810A00E015E022EED3
:103B8000000A1068C0F34620401C00EE900AF8EED0
:103B9000600A80EE201ABCEEC10A10EE100A70BD59
:103BA00001EE901ADFED092AD8E7002070BD000071
:103BB000104402580090D00340787D010000003985
:103BC000304402580024744A0024744C20BCBE4B7C
:103BD0002DE9F05F04007DD0FF4F2078FE4D1837AF
:103BE000DFF8F493103DC00748D0D9F800003968D9
:103BF00000F03800102815D0182803D101F0030078
:103C000002280FD06068B0F5803F12D010B1B0F537
:103C1000A02F18D0286820F480302860286820F46D
:103C2000802009E02868800328D560680028D2D069
:103C300024E0286840F480302860606888B1FDF78F
:103C4000FDFE064609E0286840F480202860F0E781
:103C5000FDF7F4FE801B64286FD828688003F7D531
:103C60000CE0FDF7EBFE064605E000BFFDF7E6FEC3
:103C7000801B6428F0D828688003F7D4207841F2AC
:103C80000308D54E0C3E800769D5D9F80000396885
:103C900010F038000ED0182801D188070AD0E0684B
:103CA00090B3296821F0190101432960FDF7C6FE90
:103CB000824631E02868400702D5E06800288AD0B3
:103CC000E168286820F0190008432860FDF7B6FE77
:103CD000824607E0DFE000BFFDF7B0FEA0EB0A0080
:103CE0000228B9D828684007F6D500BFFDF7A0FE26
:103CF00040451BD82069402812D0316821F47C311E
:103D000041EA003030602AE018E000BFFDF796FE7F
:103D1000A0EB0A0002289FD828684007F6D5E5E7FF
:103D2000306820F47C3040F40030EBE7207C3168D0
:103D300021F0FE4141EA0060E4E70DE1286820F04F
:103D400001002860FDF77AFE824605E0FDF776FE69
:103D5000A0EB0A0002288DD828684007F6D4207806
:103D6000C0065DD5D9F80000DFF86CB2396800F004
:103D70003800ABF1040B082810D0182803D101F04B
:103D8000030001280AD0E0690028286838D040F0F4
:103D900080002860FDF752FE824623E02868C005B7
:103DA00023D5E069802876D11FE0206A202821D021
:103DB000316821F0F84141EA8060306030E000BFB6
:103DC00094F82010DBF8002022F07C5242EA0161D6
:103DD000CBF8001024E000BFFDF730FEA0EB0A0096
:103DE000022898D82868C005F6D5FDF721FE404581
:103DF000E6D8DAE7306820F0F84040F08040DCE7B1
:103E000020F080002860FDF719FE064605E000BF9F
:103E1000FDF714FE801B02289DD82868C005F7D442
:103E20002078000729D56C486169643000298046F4
:103E3000016811D041F001010160FDF7FFFD064668
:103E400005E000BFFDF7FAFD801B0228C9D8D8F8AD
:103E500000008007F6D510E021F001010160FDF7B8
:103E6000EDFD064605E000BFFDF7E8FD801B0228DA
:103E700072D8D8F800008007F6D42078800623D5C1
:103E8000A0690028286810D040F480502860FDF711
:103E9000D5FD064605E036E1FDF7D0FD801B022882
:103EA0005AD828688004F7D50EE020F480502860A6
:103EB000FDF7C4FD064604E0FDF7C0FD801B0228A7
:103EC0004AD828688004F7D4207840074FD5DFF817
:103ED0000C81D8F8001041F48071C8F80010FDF78B
:103EE000ADFD064605E000BFFDF7A8FD801B642878
:103EF00032D8D8F80000C005F6D5374EA068603635
:103F000001280AD008B1052813D0306820F001003C
:103F10003060306820F0040002E0306840F00100BA
:103F20003060A06841F2883A90B1FDF787FD804685
:103F30000AE0306840F004003060EEE7FDF77EFDF7
:103F4000A0EB0801514507D830688007F6D50EE090
:103F5000FDF774FD804607E084E000BFFDF76EFDCD
:103F6000A0EB080151457DD830688007F6D4606A1F
:103F7000B0B3DFF86480D9F8001008F120084FF6DC
:103F8000F87B08F10409C1F3C2010329A8F1040A6E
:103F900069D00228286820F08070286003D0FDF7DF
:103FA0004DFD044684E0FDF749FD064605E000BFEF
:103FB000FDF744FD801B022877D828688001F7D4DC
:103FC000E26A40F2F331386854F8283F884340EA07
:103FD00002101843386004E01044025800480258A8
:103FE000B5E0217B434622894FF4FE0C208A4FF036
:103FF000FE474902267D521E401EA1F50071C2F304
:1040000008088AB2761E0CEA004042EA080202431F
:10401000504607EA06610A431A60DAF8002022F0E7
:104020000102CAF80020D9F80020266A22EA0B0211
:1040300042EAC602C9F80020DAF80010A26921F0AD
:104040000C011143CAF800100168E26921F0020175
:1040500011430160016841F480310160016841F45D
:10406000003101E021E027E00160016841F4802196
:104070000160016841F001010160286840F0807032
:104080002860FDF7DBFC044605E000BFFDF7D6FC29
:10409000001B022809D828688001F7D557E000BF27
:1040A000FDF7CCFC001B022802D90320BDE8F09FDD
:1040B00028688001F4D44AE039680128D8F8000063
:1040C00021D0A26A01F0030393421CD1E26AC1F33A
:1040D00005118A4217D1216BC0F30802491E8A429A
:1040E00011D1616BC0F34622491E91420BD1A16BE5
:1040F000C0F30642491E914205D1E16BC0F3066050
:10410000491E814201D00120D0E7A16C4E46D9F86A
:104110000000C0F3CC00814219D0DAF80000554607
:1041200020F00100CAF80000FDF788FC4FEA000704
:10413000FDF784FCB842FBD0A26C306820EA0B008B
:1041400040EAC2003060286840F00100286000208A
:10415000ACE700002DE9F047040029D0594A4FF0A0
:1041600000092068584B594D9042C4F8289006D059
:10417000984204D0A84202D0E1680F2918D8E1681B
:104180004FF0010AE76B0831C9080AEB5716714373
:10419000904205D0984203D0A84201D0082907D800
:1041A000904203D0984201D0A84204D1102902D9EC
:1041B0000120BDE8F08794F8810020B9204684F8FA
:1041C000809000F085F8022084F881002068016862
:1041D00021F0010101602068A1698268B1F1806F5E
:1041E00002F4F81110D16268B2F5800F01D01AB153
:1041F0000AE0A26B22B107E0A26BB2F1805F03D1AB
:10420000026842F4805202606068400209D5E068AA
:10421000072806D32068236D026822F480721A43AF
:1042200003E02068026822F480720260A66AE069F6
:10423000E26B25683043E3680A4310431843A860E3
:10424000D4E90D02D4E90581636A25691843D4F8DD
:1042500020C00A43266810432843A56DD4E90172A3
:10426000D4E9123140EA080040EA0C003843084320
:10427000104318432843F060606868B9206881687B
:1042800021F4C05141F4006181602068816821F40B
:10429000C06141F4806181602068016D21F00101FD
:1042A00001656068400206D52068626DC16821F032
:1042B00000411143C160C4F8849084F881A00020BB
:1042C00077E700000030014000380040003C00402B
:1042D0002DE9F043B7B00446142130A8FCF7C7F825
:1042E000C0216846FCF7C3F84C4D02274D494FF0FA
:1042F00005082068083D494E0024DFF824918842D3
:1043000035D1811418940020CDE900106846FEF7DD
:1043100079FD08B1FCF7C3F9306840F480403060A3
:10432000306800F480403590286840F48070286040
:10433000286800F480703590286840F004002860F8
:10434000286830A93097454600F00400CDE9317463
:104350003394CDE934803448FDF74EFA0C20309088
:10436000CDE93174CDE9334530A9484627E02F49DE
:10437000884229D1811418940020CDE900106846A4
:10438000FEF740FD08B1FCF78AF9306840F40040C0
:104390003060306800F400403590286840F0040038
:1043A00028602868062100F0040035904FF4E050A2
:1043B0003090CDE93174CDE9334130A94846FDF75D
:1043C0001BFA37B0BDE8F08319498842F9D141148E
:1043D00019940020CDE900106846FEF713FD08B1DE
:1043E000FCF75DF90D480830016841F400510160A7
:1043F000006800F400503590286840F010002860F4
:1044000028686421309130A900F01000CDE93174A2
:104410003394CDE934800748D1E70000E8440258DE
:10442000000802580038004000200258003C0040BC
:104430000034014000100258401EB0F1807F10B5DA
:1044400001D3012010BD4FF0E02460610F216017FF
:1044500003F089FE0020A0610721216110BD704793
:10446000704770472DE9F04390F83C20012A42D074
:10447000012280F83C2051F80C4BDFF880804FF08F
:10448000000991E8680051E9022723F44073B1F86C
:104490000CC03B43CF6923F480631343026823F4C9
:1044A0000063234323F4805343EA050323F40053BA
:1044B00043EA060323F4804343EA07030C3923F459
:1044C0007023424543EA0C4302D00D4CA2420CD16A
:1044D0008D8C23F47006D1E9073446EA055121F0AA
:1044E0008071194321F000732343536480F83C909A
:1044F0000020BDE8F0830220FBE70000000001403F
:1045000000040140F0B590F83C20012A3BD01F4E3A
:10451000012480F83C40022280F83D2002681C4DB6
:104520005368B242D2F808C001D0AA4203D14F6802
:1045300023F470033B430F6823F070031F4357605D
:104540000268B24213D0B2F1804F10D0114B9A42A0
:104550000DD0114B9A420AD0104B9A4207D0AA4272
:1045600005D00F4B9A4202D00E4B9A4204D1896873
:104570002CF0800319439160002180F83D4080F8C1
:104580003C100846F0BD0220F0BD000000000140D4
:10459000000401400004004000080040000C0040FE
:1045A000001800400040014010B5040003D094F80A
:1045B0003D0010B107E0012010BD002084F83C0050
:1045C000204600F023F8022084F83D002068211DD9
:1045D00001F022F9012084F8480084F83E0084F8B4
:1045E0003F0084F8400084F8410084F8420084F8D9
:1045F000430084F8440084F8450084F8460084F8B9
:10460000470084F83D00002010BD000008B5006898
:10461000154988420FD11548016841F01001016029
:1046200000680022022100F0100000903620FDF703
:10463000CBFA362012E00E49884213D10B480830DD
:10464000016841F00201016000680022114600F09B
:10465000020000902C20FDF7B7FA2C20BDE808409E
:10466000FDF7A4BA08BD000000100040E84402585D
:104670000004014070B5044690F83C000025012874
:1046800014D03A4B012684F83C60022084F83D00A7
:1046900022689068184020F47F4090600868702875
:1046A0002FD010DC10F00F0F03D022E04FF00200EB
:1046B00070BD4FEA2012072A1BD2DFE802F05353E5
:1046C00053534B394100B0F1101F4BD009DCB0F50A
:1046D000805F0FD0B0F5005F1ED0B0F5801F08D10D
:1046E00040E0A0F5801120393CD010293AD0202993
:1046F00038D0012584F83D60002084F83C0028462D
:1047000070BD4A682068D1E9021301F0EBF8206817
:10471000816841F0770109E04A682068D1E9021315
:1047200001F0E0F82068816841F480418160E1E7B0
:10473000CA684968206801F083FA2068502106E0C1
:10474000CA684968206801F08CFA2068602101F08D
:10475000D3F8CFE7CA684968206801F071FA206889
:104760004021F4E7226801461046F0E788FFCEFFBB
:1047700070472DE9F041044600680027C6680569C6
:10478000A90713D5B10711D5FA1E026101212177BE
:10479000206880698007204602D0FFF7E9FF04E027
:1047A00000F0CAF8204600F08CF92777680716D584
:1047B000700714D5226802206FF004011161207780
:1047C0002068806910F4407F204602D0FFF7D0FFB8
:1047D00004E000F0B1F8204600F073F927772807CD
:1047E00015D5300713D5226804206FF00801116138
:1047F00020772068C0698007204602D0FFF7B8FF05
:1048000004E000F099F8204600F05BF92777E8060D
:1048100016D5F00614D5226808206FF0100111613A
:1048200020772068C06910F4407F204602D0FFF74F
:104830009FFF04E000F080F8204600F042F927775F
:10484000E80708D0F00706D021686FF00100086182
:10485000204600F037F9280601D4A80408D5300610
:1048600006D521686FF4025008612046FFF7F8FD75
:10487000E80508D5300606D521686FF48070086118
:104880002046FFF7ECFD680608D5700606D52168BE
:104890006FF040000861204600F015F9A8060AD51F
:1048A000B00608D521686FF0200008612046BDE8F9
:1048B000F041FFF7D6BDBDE8F081000070B586B0CD
:1048C000044614216846FBF7D2FD17492068884248
:1048D00028D11648016841F480710160016801F433
:1048E00080710591016841F0800101600068002439
:1048F0000326694600F080000590E0200090022524
:104900000B48CDE90154CDE90346FCF775FF4FF4A0
:1049100060400090CDE9015406486946CDE9034660
:10492000FCF76AFF06B070BD00040140E044025885
:1049300000200258001C0258704770B5044690F8D9
:104940003C0000260D4601280BD0012084F83C00D5
:104950000C2A4AD007DC82B1042A20D0082A06D1CA
:1049600031E0022070BD102A53D0142A63D00126F2
:10497000002084F83C00304670BD206800F0C6FF7F
:104980002068816941F0080181612068816921F016
:104990000401816120682A698169114311E020685E
:1049A00001F006F82068816941F4006181612068A6
:1049B000816921F48061816120682969826942EA04
:1049C00001218161D4E7206801F03EF82068C169C7
:1049D00041F00801C1612068C16921F00401C16191
:1049E00020682A69C169114311E0206801F078F854
:1049F0002068C16941F40061C1612068C16921F486
:104A00008061C16120682969C26942EA0121C161EE
:104A1000AEE7206801F0A0F82068416D41F0080180
:104A200041652068416D21F00401416520682A69D3
:104A3000416D114311E0206801F0C8F82068416D14
:104A400041F4006141652068416D21F48061416558
:104A500020682969426D42EA0121416588E710B565
:104A6000040003D094F83D0010B107E0012010BD10
:104A7000002084F83C00204600F022F8022084F850
:104A80003D002068211D00F0C7FE012084F8480089
:104A900084F83E0084F83F0084F8400084F8410028
:104AA00084F8420084F8430084F8440084F8450008
:104AB00084F8460084F8470084F83D00002010BDCB
:104AC000704770477047704730B590F884100129DF
:104AD00018D0012280F884202421C0F888100022F8
:104AE000202401680B680D6823F0005325F00105B0
:104AF0000D60426601680B60C0F8884080F8842031
:104B0000104630BD022030BD70B5044690F88400D8
:104B100001281DD0012284F884202420C4F88800B4
:104B200020680568026822F001020260206882683D
:104B300022F060620A438260204601F0A5F82268F4
:104B4000202100201560C4F8881084F8840070BD0E
:104B5000022070BD70B5044690F8840001281DD075
:104B6000012284F884202420C4F888002068056885
:104B7000026822F0010202602068826822F060422E
:104B80000A438260204601F07FF82268202100203D
:104B90001560C4F8881084F8840070BD022070BDD0
:104BA00010B5040003D0D4F8880010B107E001204C
:104BB00010BD002084F88400204600F027F824204F
:104BC000C4F888002068016821F001010160A06A32
:104BD00010B1204601F07AF8204601F05BF9012877
:104BE000E6D02068416821F49041416020688168E6
:104BF00021F02A0181602068016841F00101016013
:104C00002046BDE8104001F0C5B8000010B5B6B0B0
:104C10000446142130A8FBF72AFCC0216846FBF7A4
:104C200026FC1949206888422BD100201F900121C1
:104C30000446CDE900106846FEF7E4F808B1FBF73A
:104C40002EFD1248016841F010010160006800F07B
:104C5000100035900D481038016841F002010160E4
:104C6000006830AB022100F0020035904FF4404064
:104C7000042283E81300064830A9CDE93342FCF74B
:104C8000BBFD36B010BD000000100140F0440258DA
:104C900000040258FEE7F0B40023002A18D90A24C1
:104CA0009C4630253726B4EB107F04D905EB1077EE
:104CB00001F8137003E006EB107701F813700001A0
:104CC00001EB430787F801C05B1CDBB29342EAD3D8
:104CD000F0BC704700EB8100006E00F0F8407047B8
:104CE0008068C0F3C00070478068C0F3C0007047A0
:104CF0008068C0F3800070478068C0F38000704710
:104D0000C06810F4406F01D0002070470120704748
:104D100000EB810002F0F841026E194302F00042FC
:104D20000A43026670470000F0B599B000241C21C8
:104D30000FA8169417941894FBF799FB3C2168462A
:104D4000FBF795FB374801210425354A0823056107
:104D5000C0E90231C0E9002404754175816104771E
:104D600044628462C4620463446380F83840C1636F
:104D7000FCF7B4FB08B1FBF792FC2A4816A916947D
:104D8000FBF7BEFF08B1FBF78AFC2648FBF7B4FC33
:104D900010A9254E062040F2FF770F9681E8A1006A
:104DA000CDE913541F480FA98DF85540FCF73CF886
:104DB00008B1FBF774FC01AA00960920032182E8E0
:104DC000A100CDE904548DF824408DF82540154804
:104DD000089169468DF826400A940B948DF830406E
:104DE000FBF7A4FC08B1FBF75AFC40F20F110F4887
:104DF000CDE900010B486946FBF798FC08B1FBF7C9
:104E00004EFC40F215210A48CDE9000105486946EB
:104E1000FBF78CFC002801D0FBF741FC19B0F0BD7A
:104E2000002002400C010024000021432000F01467
:104E30000002B0252DE9F04786B014216846FBF743
:104E400016FB4348016841F010010160016801F060
:104E500010010591016841F002010160016801F053
:104E600002010591016841F004010160016801F04F
:104E700004010591016841F001010160016801F040
:104E800001010591016841F480710160016801F43C
:104E900080710591016841F080010160016801F0B5
:104EA00080010591016841F020010160016801F075
:104EB00020010591016841F00801016000680022AD
:104EC000244F202100F0080005903846FCF7AAFD89
:104ED000DFF88480002240214046FCF7A3FDDFF884
:104EE0007C90002232214846FCF79CFDDFF870A040
:104EF0004FF40056002231465046FCF793FD002443
:104F00006946012520200090CDE9015438460394DC
:104F1000FCF772FC40200090CDE901546946404600
:104F20000394FCF769FC32200090CDE901546946F6
:104F300048460394FCF760FC00966946CDE90154AD
:104F400050460394FCF758FC06B0BDE8F08700001B
:104F5000E0440258000402580014025800080258A5
:104F6000000C02582DE9F04115480F254FF0804202
:104F7000124F00219411C0E9021513118361C0E999
:104F80000414C0E90721416216128162C162C0E9BE
:104F90000D21C163016441648164C164016541659F
:104FA0008165C0E90076FFF7D5F8002803D0BDE899
:104FB000F041FBF774BBBDE8F08100000038004011
:104FC000700100242DE9F041164807224FF48006B5
:104FD000134F0021B500C0E90212AC008461C0E9A2
:104FE00004154FF0A043C0E9073141629A00816285
:104FF000C162C0E90D21C163016441648164C1647F
:10500000016541658165C0E90076FFF7A3F80028D6
:1050100003D0BDE8F041FBF742BBBDE8F0810000E2
:10502000003C0040F80100242DE9F0411548072517
:105030004FF08042124F00219411C0E90215131164
:105040008361C0E90414C0E907214162161281623C
:10505000C162C0E90D21C163016441648164C1641E
:10506000016541658165C0E90076FFF773F80028A6
:1050700003D0BDE8F041FBF712BBBDE8F0810000B2
:1050800000340140800200243EB5104800244FF651
:10509000FF710D4BEF22009401940294C0E902418C
:1050A0008461C0E90032FFF77FFA08B1FBF7F7FA35
:1050B0000648694600940294FFF724FA002801D0BC
:1050C000FBF7EDFA3EBD000000100040080300248D
:1050D00030B599B000241C21009407A801940294D3
:1050E0000394049405940694FBF7C1F92C210EA8AF
:1050F000FBF7BDF9374820223549012542F6DF6329
:10510000E0E8021480E83C0004613248FFF74CFA02
:1051100008B1FBF7C4FA4FF4805000902D4869465F
:10512000FFF7A8FA08B1FBF7BAFA2A48FFF797FC8D
:1051300008B1FBF7B4FA274804A90494059406942F
:10514000FFF7E0F908B1FBF7AAFA6020CDE9070400
:105150002048002207A909940A940B940C940D94FA
:10516000FFF7EBFB08B1FBF79AFA1A48042207A9EC
:10517000FFF7E3FB08B1FBF792FA1648082207A9EC
:10518000FFF7DBFB08B1FBF78AFA12480C2207A9EC
:10519000FFF7D3FB08B1FBF782FA4FF400500E94EF
:1051A0000F9401031094CDE9124011941494CDE9A9
:1051B000154108480EA917941894FFF753F908B140
:1051C000FBF76DFA0348FFF779FB19B030BD00001B
:1051D00000040140540300241848002110B5164C67
:1051E0000C224FF4E1330460C0E90131C160C0E931
:1051F00004128161C161016241628162FFF7D0FCEA
:1052000008B1FBF74CFA0D480021FFF7A3FC08B1E9
:10521000FBF745FA09480021FFF776FC08B1FBF7D8
:105220003EFA0648FFF750FC002803D0BDE81040C6
:10523000FBF735BA10BD000000100140A0030024A8
:1052400010B510490022104801F070FD08B1FBF7BD
:1052500026FA0E490C4801F0C2FF08B1FBF71FFA0D
:105260000B49094801F02EFA08B1FBF718FA064875
:1052700002F08AF808B1FBF712FABDE81040FDF71A
:105280005BBA00001400002434040024D40000247D
:1052900068000024FEE7FEE70148FCF727BE000097
:1052A000301B00242DE9F041044680790D4620276B
:1052B000236801284FF4004604F29C4203EB451199
:1052C000D3F840C0D1F8080B09D0DFF89CE0F445D2
:1052D0003AD1020433D500BFC1F8086B40E0234B3C
:1052E0005FEA007E04D59C453AD90004F4D437E047
:1052F0005FEA806E02D5C1F8087B31E010F0280F1C
:105300002ED19C4501D90004E6D4D1F8101B05EB41
:10531000C50004EB8000C1F31201D0F87432A3EB96
:105320000101C0F8681200F51570ADB903691BB131
:10533000C2681144C1600FE0206801210AE08006C4
:105340000AD5C1F8087B07E035B9D4F8640218B96A
:105350000021184602F0AEFB2046E9B2FCF7AFFC94
:105360000020BDE8F08100000A31544F0A30544F4C
:105370002DE9F84F0E460568814601EBC60100EBAA
:105380008104D4E909201434904202D90120BDE8F7
:10539000F88FA168101A814200D20846C01C05EBA4
:1053A000461887081BE000BFA268A0EB010A52451F
:1053B00000D2924699F806100AF1030000911FFAF4
:1053C0008AF3E16887082846F2B202F0B7FEE16886
:1053D00001EB0A00E060616901EB0A006061D8F846
:1053E000180980B2B84205D3D4E90401814201D240
:1053F0000028D9D1D4E90401884208D8D5F8341856
:10540000012006F00F0290408143C5F834180020B7
:10541000BDE770472DE9F047454D044689464FF0FA
:10542000000A2868C04380070AD0414E283E3068F1
:1054300020F080603060FCF701FB0746B04608E0D2
:105440000120BDE8F08700BFFCF7F8FAC01B022876
:1054500067D8D8F800000001F6D4206829684FF416
:10546000FE0721F47C313E0241EA00302860207AB8
:10547000A389B4F804C040022D4D2D495B1E227C47
:10548000ACF1010C1035091DA0F5007080B2521E60
:10549000CCF3080C07EA034340EA0C00184306EA81
:1054A0000262104328600868626920F0C00010435F
:1054B00008600A68A06922F0200202430A60281DE1
:1054C0000A6822F010020A6002684FF6F873E46975
:1054D0009A4342EAC40202600868B9F1000F40F042
:1054E00010020A6011D00868B9F1010F11D040F420
:1054F00000100860D8F80000444640F08060C8F80A
:105500000000FCF79BFA05460DE0086840F4002017
:10551000EFE740F48010ECE7FCF790FA401B02281C
:1055200001D903208DE720680001F5D5504688E7B2
:10553000284402582DE9F047454D044689464FF06E
:10554000000A2868C04380070AD0414E283E3068D0
:1055500020F080503060FCF771FA0746B04608E052
:105560000120BDE8F08700BFFCF768FAC01B0228E5
:1055700067D8D8F800008000F6D4208829684FF456
:10558000FE0721F07C713E0241EA00502860207A3B
:10559000A389B4F804C040022D4D2D495B1E227C26
:1055A000ACF1010C1835091DA0F5007080B2521E37
:1055B000CCF3080C07EA034340EA0C00184306EA60
:1055C0000262104328600868626920F4406010435A
:1055D00008600A68A06922F4007202430A60281D6C
:1055E0000A6822F480720A6002684FF6F873E46970
:1055F0009A4342EAC40202600868B9F1000F40F41D
:1056000080720A6011D00868B9F1010F11D040F022
:1056100080700860D8F80000444640F08050C8F818
:105620000000FCF70BFA05460DE0086840F4800026
:10563000EFE740F40000ECE7FCF700FA401B02281B
:1056400001D903208DE720688000F5D5504688E712
:10565000284402587047FCF7F7B90000F0B59DB038
:105660004C216846FAF703FF202113A8FAF7FFFE42
:105670000220FDF737F8224800242249026842F44C
:105680004042026002680A6842F001020A6009684A
:1056900001F001011B9101688904FCD502200990E9
:1056A0002121C20301230526CDE900120AAA06938F
:1056B000C0270F2182E8C100CDE90D0108250F9018
:1056C000CDE9105468461294FEF782FA08B172B61A
:1056D000FEE740201A903F210301CDE91650032236
:1056E000CDE9180313AB13A883E816000421FEF7D5
:1056F0005FF8002801D072B6FEE71DB0F0BD0000D3
:10570000184802582C0400583348F0B5334A016851
:1057100041F470010160106800F00F00072804D206
:10572000106820F00F00C01D10602D4900202C4C87
:1057300010340B682B4D43F001030B6020600B68A5
:105740002B400B60136803F00F03072B04D9136879
:1057500023F00F03DB1D1360214C234A1834234B25
:10576000261D371D20601E4C214D28343060261D1B
:105770003860371D23603B1D35601C1D3A60251DB8
:105780002E1D1860331D22602860326018600A6880
:10579000134B184C22F4802260330A601860206892
:1057A0006FF30F00B0F1005F03D213490120C1F87D
:1057B00008010B48D4300168C9040BD4026843F2D5
:1057C000D2010E4B42F4805202601960016821F44C
:1057D00080510160F0BD000088ED00E00020005223
:1057E000004402587FEDF6EA800201010002020245
:1057F0000000FF010010005C0080005100400052DA
:105800000148FEF7B6BF0000080300240148FEF778
:10581000B0BF0000540300242DE9F047294B4FF09E
:10582000804A294D02689842284E294F294C09D0B8
:10583000504507D0A84205D0B04203D0B84201D0AD
:10584000A04205D1D1F804C022F070024CEA020255
:10585000DFF884C0DFF884809842DFF884900FD0AE
:1058600050450DD0A8420BD0B04209D0B84207D065
:10587000A04205D0604503D0404501D0484503D142
:10588000CD6822F440722A438E684D6922F080026E
:10589000C6620E682A439842866207D0A04205D0AD
:1058A000604503D0404501D0484501D109690163F5
:1058B0000368012143F00403036041610260BDE815
:1058C000F087000000000140000400400008004094
:1058D000000C004000040140004001400044014031
:1058E0000048014042EA032283680A4323F47F41CF
:1058F0000A43826070470000034B82681A400A43E3
:1059000042F00701816070478FFFCFFF2DE9F04F14
:10591000DFF88480214EDFF88890DFF888B0026AD3
:10592000036AB042DFF880A022F0020C1F4F23F080
:1059300001020262426885698B680C6805EA080505
:1059400025F0030543EA0C0344EA050407D0484563
:1059500005D0584503D0504501D0B84205D1CD6897
:1059600023F008031D4325F00403B04207D0484547
:1059700005D0584503D0504501D0B84205D122F496
:105980004076D1E9055235432A4342608461496833
:1059900041630362BDE8F08F8FFFFEFF000001400E
:1059A0000004014000400140004401400048014023
:1059B000F0B5DFF87CE01F4C1F4D026A036AA0427D
:1059C00022F0200623F01003036242688369D1F8B5
:1059D00008C00F6803EA0E0323F4407E46EA0C1366
:1059E0004EEA072601D0A84206D1CF6823F08003F3
:1059F00043EA071323F04003A0420AD0A84208D08C
:105A00000E4CA04205D00E4CA04202D00D4CA0423C
:105A100007D1D1E9054522F4406242EA840242EA14
:105A2000850242608661496881630362F0BD0000BF
:105A3000FF8FFFFE000001400004014000400140D4
:105A40000044014000480140F0B5DFF87CE01F4D04
:105A50001F4E026A036AA84222F4007723F480737F
:105A600003624368C269D1F808C002EA0E020C68FA
:105A700022F0030E47EA0C2244EA0E0401D0B042A1
:105A800006D1CF6822F4006242EA072222F4806243
:105A9000A8420AD0B04208D00E4DA84205D00E4D03
:105AA000A84202D00D4DA84207D1D1E9055623F4F2
:105AB000405343EA051343EA06134360C46149684F
:105AC000C1630262F0BD00008FFFFEFF00000140D5
:105AD00000040140004001400044014000480140F2
